{
  "_format": "hh-sol-artifact-1",
  "contractName": "Vesting",
  "sourceName": "contracts/Vesting.sol",
  "abi": [
    {
      "inputs": [
        {
          "components": [
            {
              "internalType": "bool",
              "name": "isExist",
              "type": "bool"
            },
            {
              "internalType": "bool",
              "name": "isRefundable",
              "type": "bool"
            },
            {
              "internalType": "bool",
              "name": "isRefund",
              "type": "bool"
            },
            {
              "internalType": "bool",
              "name": "isVesting",
              "type": "bool"
            },
            {
              "internalType": "bool",
              "name": "isMint",
              "type": "bool"
            },
            {
              "internalType": "bytes32",
              "name": "merkleRoot",
              "type": "bytes32"
            },
            {
              "internalType": "enum ItemType",
              "name": "itemType",
              "type": "uint8"
            },
            {
              "internalType": "enum EventType",
              "name": "eventType",
              "type": "uint8"
            },
            {
              "internalType": "uint256",
              "name": "chaindID",
              "type": "uint256"
            },
            {
              "internalType": "uint256",
              "name": "projectID",
              "type": "uint256"
            },
            {
              "internalType": "uint256",
              "name": "purchaseLimit",
              "type": "uint256"
            },
            {
              "internalType": "uint256",
              "name": "refundEndTime",
              "type": "uint256"
            },
            {
              "internalType": "uint256",
              "name": "claimStartTime",
              "type": "uint256"
            },
            {
              "internalType": "uint256",
              "name": "claimEndTime",
              "type": "uint256"
            },
            {
              "internalType": "uint256",
              "name": "remainingTokens",
              "type": "uint256"
            },
            {
              "internalType": "uint256",
              "name": "claimedTokens",
              "type": "uint256"
            },
            {
              "internalType": "uint256",
              "name": "refundedAmount",
              "type": "uint256"
            },
            {
              "internalType": "uint256[]",
              "name": "vestingPeriod",
              "type": "uint256[]"
            },
            {
              "internalType": "uint256[]",
              "name": "periodClaim",
              "type": "uint256[]"
            },
            {
              "internalType": "address",
              "name": "tokenAddress",
              "type": "address"
            },
            {
              "internalType": "address",
              "name": "reserveContract",
              "type": "address"
            },
            {
              "internalType": "address",
              "name": "usedTokenAddress",
              "type": "address"
            },
            {
              "internalType": "address[]",
              "name": "refundedUsers",
              "type": "address[]"
            }
          ],
          "internalType": "struct TVesting",
          "name": "_params",
          "type": "tuple"
        }
      ],
      "stateMutability": "nonpayable",
      "type": "constructor"
    },
    {
      "inputs": [],
      "name": "Address_Cannot_Be_Zero",
      "type": "error"
    },
    {
      "inputs": [
        {
          "internalType": "address",
          "name": "account",
          "type": "address"
        }
      ],
      "name": "Address_Is_A_Contract",
      "type": "error"
    },
    {
      "inputs": [
        {
          "internalType": "address",
          "name": "owner",
          "type": "address"
        }
      ],
      "name": "OwnableInvalidOwner",
      "type": "error"
    },
    {
      "inputs": [
        {
          "internalType": "address",
          "name": "account",
          "type": "address"
        }
      ],
      "name": "OwnableUnauthorizedAccount",
      "type": "error"
    },
    {
      "inputs": [],
      "name": "ReentrancyGuardReentrantCall",
      "type": "error"
    },
    {
      "anonymous": false,
      "inputs": [
        {
          "indexed": true,
          "internalType": "address",
          "name": "",
          "type": "address"
        },
        {
          "indexed": true,
          "internalType": "uint256",
          "name": "",
          "type": "uint256"
        }
      ],
      "name": "HANDLE_CLAIM",
      "type": "event"
    },
    {
      "anonymous": false,
      "inputs": [
        {
          "indexed": true,
          "internalType": "address",
          "name": "",
          "type": "address"
        },
        {
          "indexed": true,
          "internalType": "uint256",
          "name": "",
          "type": "uint256"
        }
      ],
      "name": "HANDLE_INIT_VESTING",
      "type": "event"
    },
    {
      "anonymous": false,
      "inputs": [
        {
          "indexed": true,
          "internalType": "address",
          "name": "",
          "type": "address"
        },
        {
          "indexed": true,
          "internalType": "uint256",
          "name": "",
          "type": "uint256"
        }
      ],
      "name": "HANDLE_REFUND",
      "type": "event"
    },
    {
      "anonymous": false,
      "inputs": [
        {
          "indexed": true,
          "internalType": "address",
          "name": "",
          "type": "address"
        },
        {
          "indexed": true,
          "internalType": "uint256",
          "name": "",
          "type": "uint256"
        }
      ],
      "name": "HANDLE_SET_REFUND",
      "type": "event"
    },
    {
      "anonymous": false,
      "inputs": [
        {
          "indexed": true,
          "internalType": "address",
          "name": "",
          "type": "address"
        },
        {
          "indexed": true,
          "internalType": "uint256",
          "name": "",
          "type": "uint256"
        }
      ],
      "name": "HANDLE_WITHDRAWN_AMOUNT",
      "type": "event"
    },
    {
      "anonymous": false,
      "inputs": [
        {
          "indexed": true,
          "internalType": "address",
          "name": "previousOwner",
          "type": "address"
        },
        {
          "indexed": true,
          "internalType": "address",
          "name": "newOwner",
          "type": "address"
        }
      ],
      "name": "OwnershipTransferred",
      "type": "event"
    },
    {
      "inputs": [
        {
          "internalType": "address",
          "name": "_user",
          "type": "address"
        },
        {
          "internalType": "uint256",
          "name": "_nodeIndex",
          "type": "uint256"
        },
        {
          "internalType": "uint256",
          "name": "_amount",
          "type": "uint256"
        },
        {
          "internalType": "bytes32[]",
          "name": "_merkleProof",
          "type": "bytes32[]"
        }
      ],
      "name": "calculateClaim",
      "outputs": [
        {
          "internalType": "uint256",
          "name": "",
          "type": "uint256"
        }
      ],
      "stateMutability": "view",
      "type": "function"
    },
    {
      "inputs": [
        {
          "internalType": "uint256",
          "name": "_nodeIndex",
          "type": "uint256"
        },
        {
          "internalType": "uint256",
          "name": "_amount",
          "type": "uint256"
        },
        {
          "internalType": "bytes32[]",
          "name": "_merkleProof",
          "type": "bytes32[]"
        }
      ],
      "name": "claim",
      "outputs": [],
      "stateMutability": "payable",
      "type": "function"
    },
    {
      "inputs": [
        {
          "internalType": "address",
          "name": "_user",
          "type": "address"
        }
      ],
      "name": "getUser",
      "outputs": [
        {
          "components": [
            {
              "internalType": "bool",
              "name": "userRefunded",
              "type": "bool"
            },
            {
              "internalType": "uint256",
              "name": "claimCount",
              "type": "uint256"
            },
            {
              "internalType": "uint256",
              "name": "userRefundedAmount",
              "type": "uint256"
            },
            {
              "internalType": "uint256",
              "name": "userWithdrawnAmount",
              "type": "uint256"
            }
          ],
          "internalType": "struct TVestingUser",
          "name": "user",
          "type": "tuple"
        }
      ],
      "stateMutability": "view",
      "type": "function"
    },
    {
      "inputs": [],
      "name": "getVesting",
      "outputs": [
        {
          "components": [
            {
              "internalType": "bool",
              "name": "isExist",
              "type": "bool"
            },
            {
              "internalType": "bool",
              "name": "isRefundable",
              "type": "bool"
            },
            {
              "internalType": "bool",
              "name": "isRefund",
              "type": "bool"
            },
            {
              "internalType": "bool",
              "name": "isVesting",
              "type": "bool"
            },
            {
              "internalType": "bool",
              "name": "isMint",
              "type": "bool"
            },
            {
              "internalType": "bytes32",
              "name": "merkleRoot",
              "type": "bytes32"
            },
            {
              "internalType": "enum ItemType",
              "name": "itemType",
              "type": "uint8"
            },
            {
              "internalType": "enum EventType",
              "name": "eventType",
              "type": "uint8"
            },
            {
              "internalType": "uint256",
              "name": "chaindID",
              "type": "uint256"
            },
            {
              "internalType": "uint256",
              "name": "projectID",
              "type": "uint256"
            },
            {
              "internalType": "uint256",
              "name": "purchaseLimit",
              "type": "uint256"
            },
            {
              "internalType": "uint256",
              "name": "refundEndTime",
              "type": "uint256"
            },
            {
              "internalType": "uint256",
              "name": "claimStartTime",
              "type": "uint256"
            },
            {
              "internalType": "uint256",
              "name": "claimEndTime",
              "type": "uint256"
            },
            {
              "internalType": "uint256",
              "name": "remainingTokens",
              "type": "uint256"
            },
            {
              "internalType": "uint256",
              "name": "claimedTokens",
              "type": "uint256"
            },
            {
              "internalType": "uint256",
              "name": "refundedAmount",
              "type": "uint256"
            },
            {
              "internalType": "uint256[]",
              "name": "vestingPeriod",
              "type": "uint256[]"
            },
            {
              "internalType": "uint256[]",
              "name": "periodClaim",
              "type": "uint256[]"
            },
            {
              "internalType": "address",
              "name": "tokenAddress",
              "type": "address"
            },
            {
              "internalType": "address",
              "name": "reserveContract",
              "type": "address"
            },
            {
              "internalType": "address",
              "name": "usedTokenAddress",
              "type": "address"
            },
            {
              "internalType": "address[]",
              "name": "refundedUsers",
              "type": "address[]"
            }
          ],
          "internalType": "struct TVesting",
          "name": "vesting",
          "type": "tuple"
        }
      ],
      "stateMutability": "view",
      "type": "function"
    },
    {
      "inputs": [
        {
          "internalType": "address",
          "name": "",
          "type": "address"
        },
        {
          "internalType": "address",
          "name": "",
          "type": "address"
        },
        {
          "internalType": "uint256[]",
          "name": "",
          "type": "uint256[]"
        },
        {
          "internalType": "uint256[]",
          "name": "",
          "type": "uint256[]"
        },
        {
          "internalType": "bytes",
          "name": "",
          "type": "bytes"
        }
      ],
      "name": "onERC1155BatchReceived",
      "outputs": [
        {
          "internalType": "bytes4",
          "name": "",
          "type": "bytes4"
        }
      ],
      "stateMutability": "nonpayable",
      "type": "function"
    },
    {
      "inputs": [
        {
          "internalType": "address",
          "name": "",
          "type": "address"
        },
        {
          "internalType": "address",
          "name": "",
          "type": "address"
        },
        {
          "internalType": "uint256",
          "name": "",
          "type": "uint256"
        },
        {
          "internalType": "uint256",
          "name": "",
          "type": "uint256"
        },
        {
          "internalType": "bytes",
          "name": "",
          "type": "bytes"
        }
      ],
      "name": "onERC1155Received",
      "outputs": [
        {
          "internalType": "bytes4",
          "name": "",
          "type": "bytes4"
        }
      ],
      "stateMutability": "nonpayable",
      "type": "function"
    },
    {
      "inputs": [
        {
          "internalType": "address",
          "name": "",
          "type": "address"
        },
        {
          "internalType": "address",
          "name": "",
          "type": "address"
        },
        {
          "internalType": "uint256",
          "name": "",
          "type": "uint256"
        },
        {
          "internalType": "bytes",
          "name": "",
          "type": "bytes"
        }
      ],
      "name": "onERC721Received",
      "outputs": [
        {
          "internalType": "bytes4",
          "name": "",
          "type": "bytes4"
        }
      ],
      "stateMutability": "nonpayable",
      "type": "function"
    },
    {
      "inputs": [],
      "name": "owner",
      "outputs": [
        {
          "internalType": "address",
          "name": "",
          "type": "address"
        }
      ],
      "stateMutability": "view",
      "type": "function"
    },
    {
      "inputs": [],
      "name": "renounceOwnership",
      "outputs": [],
      "stateMutability": "nonpayable",
      "type": "function"
    },
    {
      "inputs": [
        {
          "internalType": "address",
          "name": "newOwner",
          "type": "address"
        }
      ],
      "name": "transferOwnership",
      "outputs": [],
      "stateMutability": "nonpayable",
      "type": "function"
    },
    {
      "stateMutability": "payable",
      "type": "receive"
    }
  ],
  "bytecode": "0x60806040523480156200001157600080fd5b506040516200231e3803806200231e833981016040819052620000349162000591565b33806200005b57604051631e4fbdf760e01b81526000600482015260240160405180910390fd5b6200006681620002cb565b50600180805581517f2413806b5df61169cfcb26772001f7496450d5af8b068f48597e7f10b10ce9488054602085015160408601516060870151608088015115156401000000000260ff60201b1991151563010000000263ff0000001993151562010000029390931663ffff0000199415156101000261ff00199815159890981661ffff1990961695909517969096179290921692909217919091171691909117815560a08301517f2413806b5df61169cfcb26772001f7496450d5af8b068f48597e7f10b10ce9495560c08301517f2413806b5df61169cfcb26772001f7496450d5af8b068f48597e7f10b10ce94a8054859460ff19909116908360028111156200017657620001766200078a565b021790555060e08201518160020160016101000a81548160ff02191690836002811115620001a857620001a86200078a565b0217905550610100820151600382015561012082015160048201556101408201516005820155610160820151600682015561018082015160078201556101a082015160088201556101c082015160098201556101e0820151600a820155610200820151600b82015561022082015180516200022e91600c8401916020909101906200031b565b5061024082015180516200024d91600d8401916020909101906200031b565b50610260820151600e820180546001600160a01b039283166001600160a01b031991821617909155610280840151600f840180549184169183169190911790556102a08401516010840180549190931691161790556102c08201518051620002c09160118401916020909101906200036b565b5090505050620007a0565b600080546001600160a01b038381166001600160a01b0319831681178455604051919092169283917f8be0079c531659141344cd1fd0a4f28419497f9722a3daafe3b4186f6b6457e09190a35050565b82805482825590600052602060002090810192821562000359579160200282015b82811115620003595782518255916020019190600101906200033c565b5062000367929150620003c3565b5090565b82805482825590600052602060002090810192821562000359579160200282015b828111156200035957825182546001600160a01b0319166001600160a01b039091161782556020909201916001909101906200038c565b5b80821115620003675760008155600101620003c4565b634e487b7160e01b600052604160045260246000fd5b6040516102e081016001600160401b0381118282101715620004165762000416620003da565b60405290565b604051601f8201601f191681016001600160401b0381118282101715620004475762000447620003da565b604052919050565b805180151581146200046057600080fd5b919050565b8051600381106200046057600080fd5b60006001600160401b03821115620004915762000491620003da565b5060051b60200190565b600082601f830112620004ad57600080fd5b81516020620004c6620004c08362000475565b6200041c565b82815260059290921b84018101918181019086841115620004e657600080fd5b8286015b84811015620005035780518352918301918301620004ea565b509695505050505050565b80516001600160a01b03811681146200046057600080fd5b600082601f8301126200053857600080fd5b815160206200054b620004c08362000475565b82815260059290921b840181019181810190868411156200056b57600080fd5b8286015b84811015620005035762000583816200050e565b83529183019183016200056f565b600060208284031215620005a457600080fd5b81516001600160401b0380821115620005bc57600080fd5b908301906102e08286031215620005d257600080fd5b620005dc620003f0565b620005e7836200044f565b8152620005f7602084016200044f565b60208201526200060a604084016200044f565b60408201526200061d606084016200044f565b606082015262000630608084016200044f565b608082015260a083015160a08201526200064d60c0840162000465565b60c08201526200066060e0840162000465565b60e0820152610100838101519082015261012080840151908201526101408084015190820152610160808401519082015261018080840151908201526101a080840151908201526101c080840151908201526101e0808401519082015261020080840151908201526102208084015183811115620006dd57600080fd5b620006eb888287016200049b565b82840152505061024080840151838111156200070657600080fd5b62000714888287016200049b565b8284015250506102606200072a8185016200050e565b908201526102806200073e8482016200050e565b908201526102a0620007528482016200050e565b908201526102c083810151838111156200076b57600080fd5b620007798882870162000526565b918301919091525095945050505050565b634e487b7160e01b600052602160045260246000fd5b611b6e80620007b06000396000f3fe6080604052600436106100955760003560e01c8063ae0b51df11610059578063ae0b51df146101a1578063bc197c81146101b4578063bcc4e4ab146101e0578063f23a6e6114610202578063f2fde38b1461022e57600080fd5b8063150b7a02146100a157806337c7ef12146100df5780636f77926b1461010d578063715018a6146101625780638da5cb5b1461017957600080fd5b3661009c57005b600080fd5b3480156100ad57600080fd5b506100c16100bc3660046113fc565b61024e565b6040516001600160e01b031990911681526020015b60405180910390f35b3480156100eb57600080fd5b506100ff6100fa3660046114e7565b610260565b6040519081526020016100d6565b34801561011957600080fd5b5061012d610128366004611551565b6104b5565b6040516100d6919081511515815260208083015190820152604080830151908201526060918201519181019190915260800190565b34801561016e57600080fd5b50610177610554565b005b34801561018557600080fd5b506000546040516001600160a01b0390911681526020016100d6565b6101776101af366004611575565b610568565b3480156101c057600080fd5b506100c16101cf3660046116ff565b63bc197c8160e01b95945050505050565b3480156101ec57600080fd5b506101f5610a06565b6040516100d69190611859565b34801561020e57600080fd5b506100c161021d366004611a0f565b63f23a6e6160e01b95945050505050565b34801561023a57600080fd5b50610177610249366004611551565b610d9e565b630a85bd0160e11b5b95945050505050565b60008042817f2413806b5df61169cfcb26772001f7496450d5af8b068f48597e7f10b10ce94790506000888a896040516020016102c29392919092835260609190911b6bffffffffffffffffffffffff19166020830152603482015260540190565b6040516020818303038152906040528051906020012090506102ed8787846001016001015484610ddc565b61032f5760405162461bcd60e51b815260206004820152600e60248201526d24b73b30b634b210383937b7b31760911b60448201526064015b60405180910390fd5b6001600160a01b038a166000908152602083905260409020600301548890818103610364575060009550610257945050505050565b60016003850154610100900460ff166002811115610384576103846117ad565b146104a057600084600101600c018054806020026020016040519081016040528092919081815260200182805480156103dc57602002820191906000526020600020905b8154815260200190600101908083116103c8575b505050600888015492935050508611801561041057508060008151811061040557610405611a78565b602002602001015186115b1561048e5760005b815181101561048c5781818151811061043357610433611a78565b6020026020010151871061048457600086600101600d01828154811061045b5761045b611a78565b90600052602060002001546064866104739190611a8e565b61047d9190611ab0565b9890980197505b600101610418565b505b861561049a5781870396505b506104a5565b600195505b50939a9950505050505050505050565b6104e260405180608001604052806000151581526020016000815260200160008152602001600081525090565b7f2413806b5df61169cfcb26772001f7496450d5af8b068f48597e7f10b10ce9476001600160a01b03909216600090815260209283526040908190208151608081018352815460ff16151581526001820154948101949094526002810154918401919091526003015460608301525090565b61055c610e82565b6105666000610eaf565b565b610570610eff565b3332811461059c576040516375ce97fd60e11b81526001600160a01b0382166004820152602401610326565b6001600160a01b03811632146105d0576040516375ce97fd60e11b81526001600160a01b0382166004820152602401610326565b306001600160a01b03821603610604576040516375ce97fd60e11b81526001600160a01b0382166004820152602401610326565b6001600160a01b03811661062b57604051631c7e907b60e21b815260040160405180910390fd5b61063481610f29565b1561065d576040516375ce97fd60e11b81526001600160a01b0382166004820152602401610326565b61066633610f29565b1561068f576040516375ce97fd60e11b81526001600160a01b0382166004820152602401610326565b803b80156106bb576040516375ce97fd60e11b81526001600160a01b0383166004820152602401610326565b7f2413806b5df61169cfcb26772001f7496450d5af8b068f48597e7f10b10ce94f547f2413806b5df61169cfcb26772001f7496450d5af8b068f48597e7f10b10ce9479033904210156107445760405162461bcd60e51b815260206004820152601160248201527010db185a5b57d39bdd17d4dd185c9d1959607a1b6044820152606401610326565b60098201544211156107845760405162461bcd60e51b815260206004820152600960248201526810db185a5b57d15b9960ba1b6044820152606401610326565b6001600160a01b03811660009081526020839052604090205460ff16156107dd5760405162461bcd60e51b815260206004820152600d60248201526c155cd95c97d499599d5b991959609a1b6044820152606401610326565b6040805160208082018b9052606084901b6bffffffffffffffffffffffff19168284015260548083018b905283518084039091018152607490920190925280519101206002830154610833908890889084610ddc565b6108705760405162461bcd60e51b815260206004820152600e60248201526d24b73b30b634b210383937b7b31760911b6044820152606401610326565b60008181526002602052604090205460ff16156108c65760405162461bcd60e51b8152602060048201526014602482015273155cd95c97d05b1c9958591e57d0db185a5b595960621b6044820152606401610326565b60006108d5838b8b8b8b610260565b90508060000361091a5760405162461bcd60e51b815260206004820152601060248201526f155cd95c97d39bdd17d15e1c1a5c995960821b6044820152606401610326565b6001600160a01b038316600090815260208590526040902060038101805483019055600b850180548301905560019081018054820190556003850154610100900460ff16600281111561096f5761096f6117ad565b14801561099a57506001600160a01b0383166000908152602085905260409020600101546006850154145b156109b9576000828152600260205260409020805460ff191660011790555b6001840154600f850154600386015460ff6401000000009093048316926109f09284928e9289926001600160a01b03169116610f65565b50505050505050610a0060018055565b50505050565b610ad2604080516102e081018252600080825260208201819052918101829052606081018290526080810182905260a081018290529060c0820190815260200160008152602001600081526020016000815260200160008152602001600081526020016000815260200160008152602001600081526020016000815260200160008152602001606081526020016060815260200160006001600160a01b0316815260200160006001600160a01b0316815260200160006001600160a01b03168152602001606081525090565b604080516102e0810182527f2413806b5df61169cfcb26772001f7496450d5af8b068f48597e7f10b10ce948805460ff80821615158452610100820481161515602085015262010000820481161515948401949094526301000000810484161515606084015264010000000090048316151560808301527f2413806b5df61169cfcb26772001f7496450d5af8b068f48597e7f10b10ce9495460a08301527f2413806b5df61169cfcb26772001f7496450d5af8b068f48597e7f10b10ce94a549192909160c0840191166002811115610bad57610bad6117ad565b6002811115610bbe57610bbe6117ad565b81526020016002820160019054906101000a900460ff166002811115610be657610be66117ad565b6002811115610bf757610bf76117ad565b815260200160038201548152602001600482015481526020016005820154815260200160068201548152602001600782015481526020016008820154815260200160098201548152602001600a8201548152602001600b8201548152602001600c8201805480602002602001604051908101604052809291908181526020018280548015610ca457602002820191906000526020600020905b815481526020019060010190808311610c90575b50505050508152602001600d8201805480602002602001604051908101604052809291908181526020018280548015610cfc57602002820191906000526020600020905b815481526020019060010190808311610ce8575b5050509183525050600e8201546001600160a01b03908116602080840191909152600f8401548216604080850191909152601085015490921660608401526011840180548351818402810184019094528084526080909401939091830182828015610d9057602002820191906000526020600020905b81546001600160a01b03168152600190910190602001808311610d72575b505050505081525050905090565b610da6610e82565b6001600160a01b038116610dd057604051631e4fbdf760e01b815260006004820152602401610326565b610dd981610eaf565b50565b60008184825b81811015610e75576000888883818110610dfe57610dfe611a78565b905060200201359050808411610e3f576040805160208101869052908101829052606001604051602081830303815290604052805190602001209350610e6c565b60408051602081018390529081018590526060016040516020818303038152906040528051906020012093505b50600101610de2565b5050909214949350505050565b6000546001600160a01b031633146105665760405163118cdaa760e01b8152336004820152602401610326565b600080546001600160a01b038381166001600160a01b0319831681178455604051919092169283917f8be0079c531659141344cd1fd0a4f28419497f9722a3daafe3b4186f6b6457e09190a35050565b600260015403610f2257604051633ee5aeb560e01b815260040160405180910390fd5b6002600155565b6000813f7fc5d2460186f7233c927e7db2dcc703c0e500b653ca82273b7bfad8045d85a470818114801590610f5d57508115155b949350505050565b6000816002811115610f7957610f796117ad565b03611124578185611084576040516370a0823160e01b81523060048201526001600160a01b038216906370a0823190602401602060405180830381865afa158015610fc8573d6000803e3d6000fd5b505050506040513d601f19601f82011682018060405250810190610fec9190611adb565b85111561100b5760405162461bcd60e51b815260040161032690611af4565b60405163a9059cbb60e01b81526001600160a01b0385811660048301526024820187905282169063a9059cbb906044016020604051808303816000875af115801561105a573d6000803e3d6000fd5b505050506040513d601f19601f8201168201806040525081019061107e9190611b22565b506110e8565b6040516340c10f1960e01b81526001600160a01b038581166004830152602482018790528216906340c10f19906044015b600060405180830381600087803b1580156110cf57600080fd5b505af11580156110e3573d6000803e3d6000fd5b505050505b60405142906001600160a01b038616907fc56c6a39eef8d2408ffce0cddecc272ea7e1d3b1eaba7ed532f10045a3640e2790600090a3506113e0565b6002816002811115611138576111386117ad565b0361128e57818561125257604051627eeac760e11b8152306004820152602481018690526001600160a01b0382169062fdd58e90604401602060405180830381865afa15801561118c573d6000803e3d6000fd5b505050506040513d601f19601f820116820180604052508101906111b09190611adb565b8511156111cf5760405162461bcd60e51b815260040161032690611af4565b604051637921219560e11b81523060048201526001600160a01b038581166024830152604482018790526001606483015260a06084830152600060a483015282169063f242432a9060c4015b600060405180830381600087803b15801561123557600080fd5b505af1158015611249573d6000803e3d6000fd5b505050506110e8565b604051630ab714fb60e11b81526001600160a01b038581166004830152602482018790526001604483015282169063156e29f6906064016110b5565b60018160028111156112a2576112a26117ad565b036113a7578185611379576040516331a9108f60e11b81526004810186905230906001600160a01b03831690636352211e90602401602060405180830381865afa1580156112f4573d6000803e3d6000fd5b505050506040513d601f19601f820116820180604052508101906113189190611b44565b6001600160a01b03161461133e5760405162461bcd60e51b815260040161032690611af4565b6040516323b872dd60e01b81523060048201526001600160a01b038581166024830152604482018790528216906323b872dd9060640161121b565b6040516340d097c360e01b81526001600160a01b0385811660048301528216906340d097c3906024016110b5565b60405162461bcd60e51b815260206004820152600e60248201526d24b73b30b634b22fa0b1ba34b7b760911b6044820152606401610326565b5050505050565b6001600160a01b0381168114610dd957600080fd5b60008060008060006080868803121561141457600080fd5b853561141f816113e7565b9450602086013561142f816113e7565b935060408601359250606086013567ffffffffffffffff8082111561145357600080fd5b818801915088601f83011261146757600080fd5b81358181111561147657600080fd5b89602082850101111561148857600080fd5b9699959850939650602001949392505050565b60008083601f8401126114ad57600080fd5b50813567ffffffffffffffff8111156114c557600080fd5b6020830191508360208260051b85010111156114e057600080fd5b9250929050565b6000806000806000608086880312156114ff57600080fd5b853561150a816113e7565b94506020860135935060408601359250606086013567ffffffffffffffff81111561153457600080fd5b6115408882890161149b565b969995985093965092949392505050565b60006020828403121561156357600080fd5b813561156e816113e7565b9392505050565b6000806000806060858703121561158b57600080fd5b8435935060208501359250604085013567ffffffffffffffff8111156115b057600080fd5b6115bc8782880161149b565b95989497509550505050565b634e487b7160e01b600052604160045260246000fd5b604051601f8201601f1916810167ffffffffffffffff81118282101715611607576116076115c8565b604052919050565b600082601f83011261162057600080fd5b8135602067ffffffffffffffff82111561163c5761163c6115c8565b8160051b61164b8282016115de565b928352848101820192828101908785111561166557600080fd5b83870192505b848310156116845782358252918301919083019061166b565b979650505050505050565b600082601f8301126116a057600080fd5b813567ffffffffffffffff8111156116ba576116ba6115c8565b6116cd601f8201601f19166020016115de565b8181528460208386010111156116e257600080fd5b816020850160208301376000918101602001919091529392505050565b600080600080600060a0868803121561171757600080fd5b8535611722816113e7565b94506020860135611732816113e7565b9350604086013567ffffffffffffffff8082111561174f57600080fd5b61175b89838a0161160f565b9450606088013591508082111561177157600080fd5b61177d89838a0161160f565b9350608088013591508082111561179357600080fd5b506117a08882890161168f565b9150509295509295909350565b634e487b7160e01b600052602160045260246000fd5b600381106117e157634e487b7160e01b600052602160045260246000fd5b9052565b600081518084526020808501945080840160005b83811015611815578151875295820195908201906001016117f9565b509495945050505050565b600081518084526020808501945080840160005b838110156118155781516001600160a01b031687529582019590820190600101611834565b6020815261186c60208201835115159052565b60006020830151611881604084018215159052565b5060408301518015156060840152506060830151801515608084015250608083015180151560a08401525060a083015160c083015260c08301516118c860e08401826117c3565b5060e08301516101006118dd818501836117c3565b840151610120848101919091528401516101408085019190915284015161016080850191909152840151610180808501919091528401516101a0808501919091528401516101c0808501919091528401516101e08085019190915284015161020080850191909152840151610220808501919091528401516102e0610240808601829052919250906119736103008601846117e5565b9250808601519050601f1961026081878603018188015261199485846117e5565b9450808801519250506102806119b4818801846001600160a01b03169052565b87015191506102a06119d0878201846001600160a01b03169052565b87015191506102c06119ec878201846001600160a01b03169052565b870151868503909101838701529050611a058382611820565b9695505050505050565b600080600080600060a08688031215611a2757600080fd5b8535611a32816113e7565b94506020860135611a42816113e7565b93506040860135925060608601359150608086013567ffffffffffffffff811115611a6c57600080fd5b6117a08882890161168f565b634e487b7160e01b600052603260045260246000fd5b600082611aab57634e487b7160e01b600052601260045260246000fd5b500490565b8082028115828204841417611ad557634e487b7160e01b600052601160045260246000fd5b92915050565b600060208284031215611aed57600080fd5b5051919050565b602080825260149082015273496e73756666696369656e745f42616c616e636560601b604082015260600190565b600060208284031215611b3457600080fd5b8151801515811461156e57600080fd5b600060208284031215611b5657600080fd5b815161156e816113e756fea164736f6c6343000814000a",
  "linkReferences": {},
  "deployedLinkReferences": {}
}