{
  "_format": "hh-sol-artifact-1",
  "contractName": "XGameCard",
  "sourceName": "contracts/tokens/XGameCard.sol",
  "abi": [
    {
      "inputs": [
        {
          "internalType": "address",
          "name": "initialOwner",
          "type": "address"
        }
      ],
      "stateMutability": "nonpayable",
      "type": "constructor"
    },
    {
      "inputs": [
        {
          "internalType": "address",
          "name": "sender",
          "type": "address"
        },
        {
          "internalType": "uint256",
          "name": "tokenId",
          "type": "uint256"
        },
        {
          "internalType": "address",
          "name": "owner",
          "type": "address"
        }
      ],
      "name": "ERC721IncorrectOwner",
      "type": "error"
    },
    {
      "inputs": [
        {
          "internalType": "address",
          "name": "operator",
          "type": "address"
        },
        {
          "internalType": "uint256",
          "name": "tokenId",
          "type": "uint256"
        }
      ],
      "name": "ERC721InsufficientApproval",
      "type": "error"
    },
    {
      "inputs": [
        {
          "internalType": "address",
          "name": "approver",
          "type": "address"
        }
      ],
      "name": "ERC721InvalidApprover",
      "type": "error"
    },
    {
      "inputs": [
        {
          "internalType": "address",
          "name": "operator",
          "type": "address"
        }
      ],
      "name": "ERC721InvalidOperator",
      "type": "error"
    },
    {
      "inputs": [
        {
          "internalType": "address",
          "name": "owner",
          "type": "address"
        }
      ],
      "name": "ERC721InvalidOwner",
      "type": "error"
    },
    {
      "inputs": [
        {
          "internalType": "address",
          "name": "receiver",
          "type": "address"
        }
      ],
      "name": "ERC721InvalidReceiver",
      "type": "error"
    },
    {
      "inputs": [
        {
          "internalType": "address",
          "name": "sender",
          "type": "address"
        }
      ],
      "name": "ERC721InvalidSender",
      "type": "error"
    },
    {
      "inputs": [
        {
          "internalType": "uint256",
          "name": "tokenId",
          "type": "uint256"
        }
      ],
      "name": "ERC721NonexistentToken",
      "type": "error"
    },
    {
      "inputs": [
        {
          "internalType": "address",
          "name": "owner",
          "type": "address"
        }
      ],
      "name": "OwnableInvalidOwner",
      "type": "error"
    },
    {
      "inputs": [
        {
          "internalType": "address",
          "name": "account",
          "type": "address"
        }
      ],
      "name": "OwnableUnauthorizedAccount",
      "type": "error"
    },
    {
      "anonymous": false,
      "inputs": [
        {
          "indexed": true,
          "internalType": "address",
          "name": "owner",
          "type": "address"
        },
        {
          "indexed": true,
          "internalType": "address",
          "name": "approved",
          "type": "address"
        },
        {
          "indexed": true,
          "internalType": "uint256",
          "name": "tokenId",
          "type": "uint256"
        }
      ],
      "name": "Approval",
      "type": "event"
    },
    {
      "anonymous": false,
      "inputs": [
        {
          "indexed": true,
          "internalType": "address",
          "name": "owner",
          "type": "address"
        },
        {
          "indexed": true,
          "internalType": "address",
          "name": "operator",
          "type": "address"
        },
        {
          "indexed": false,
          "internalType": "bool",
          "name": "approved",
          "type": "bool"
        }
      ],
      "name": "ApprovalForAll",
      "type": "event"
    },
    {
      "anonymous": false,
      "inputs": [
        {
          "indexed": false,
          "internalType": "uint256",
          "name": "_fromTokenId",
          "type": "uint256"
        },
        {
          "indexed": false,
          "internalType": "uint256",
          "name": "_toTokenId",
          "type": "uint256"
        }
      ],
      "name": "BatchMetadataUpdate",
      "type": "event"
    },
    {
      "anonymous": false,
      "inputs": [
        {
          "indexed": false,
          "internalType": "uint256",
          "name": "_tokenId",
          "type": "uint256"
        }
      ],
      "name": "MetadataUpdate",
      "type": "event"
    },
    {
      "anonymous": false,
      "inputs": [
        {
          "indexed": true,
          "internalType": "address",
          "name": "previousOwner",
          "type": "address"
        },
        {
          "indexed": true,
          "internalType": "address",
          "name": "newOwner",
          "type": "address"
        }
      ],
      "name": "OwnershipTransferred",
      "type": "event"
    },
    {
      "anonymous": false,
      "inputs": [
        {
          "indexed": true,
          "internalType": "address",
          "name": "from",
          "type": "address"
        },
        {
          "indexed": true,
          "internalType": "address",
          "name": "to",
          "type": "address"
        },
        {
          "indexed": true,
          "internalType": "uint256",
          "name": "tokenId",
          "type": "uint256"
        }
      ],
      "name": "Transfer",
      "type": "event"
    },
    {
      "inputs": [
        {
          "internalType": "address",
          "name": "to",
          "type": "address"
        },
        {
          "internalType": "uint256",
          "name": "tokenId",
          "type": "uint256"
        }
      ],
      "name": "approve",
      "outputs": [],
      "stateMutability": "nonpayable",
      "type": "function"
    },
    {
      "inputs": [
        {
          "internalType": "address",
          "name": "owner",
          "type": "address"
        }
      ],
      "name": "balanceOf",
      "outputs": [
        {
          "internalType": "uint256",
          "name": "",
          "type": "uint256"
        }
      ],
      "stateMutability": "view",
      "type": "function"
    },
    {
      "inputs": [
        {
          "internalType": "uint256",
          "name": "tokenId",
          "type": "uint256"
        }
      ],
      "name": "burn",
      "outputs": [],
      "stateMutability": "nonpayable",
      "type": "function"
    },
    {
      "inputs": [
        {
          "internalType": "uint256",
          "name": "tokenId",
          "type": "uint256"
        }
      ],
      "name": "getApproved",
      "outputs": [
        {
          "internalType": "address",
          "name": "",
          "type": "address"
        }
      ],
      "stateMutability": "view",
      "type": "function"
    },
    {
      "inputs": [
        {
          "internalType": "uint256",
          "name": "tokenId",
          "type": "uint256"
        }
      ],
      "name": "getMultipler",
      "outputs": [
        {
          "internalType": "uint256",
          "name": "mul",
          "type": "uint256"
        }
      ],
      "stateMutability": "view",
      "type": "function"
    },
    {
      "inputs": [
        {
          "internalType": "address",
          "name": "owner",
          "type": "address"
        },
        {
          "internalType": "address",
          "name": "operator",
          "type": "address"
        }
      ],
      "name": "isApprovedForAll",
      "outputs": [
        {
          "internalType": "bool",
          "name": "",
          "type": "bool"
        }
      ],
      "stateMutability": "view",
      "type": "function"
    },
    {
      "inputs": [],
      "name": "name",
      "outputs": [
        {
          "internalType": "string",
          "name": "",
          "type": "string"
        }
      ],
      "stateMutability": "view",
      "type": "function"
    },
    {
      "inputs": [],
      "name": "owner",
      "outputs": [
        {
          "internalType": "address",
          "name": "",
          "type": "address"
        }
      ],
      "stateMutability": "view",
      "type": "function"
    },
    {
      "inputs": [
        {
          "internalType": "uint256",
          "name": "tokenId",
          "type": "uint256"
        }
      ],
      "name": "ownerOf",
      "outputs": [
        {
          "internalType": "address",
          "name": "",
          "type": "address"
        }
      ],
      "stateMutability": "view",
      "type": "function"
    },
    {
      "inputs": [],
      "name": "renounceOwnership",
      "outputs": [],
      "stateMutability": "nonpayable",
      "type": "function"
    },
    {
      "inputs": [
        {
          "internalType": "uint256",
          "name": "_multipler",
          "type": "uint256"
        },
        {
          "internalType": "address",
          "name": "to",
          "type": "address"
        }
      ],
      "name": "safeMint",
      "outputs": [],
      "stateMutability": "nonpayable",
      "type": "function"
    },
    {
      "inputs": [
        {
          "internalType": "address",
          "name": "from",
          "type": "address"
        },
        {
          "internalType": "address",
          "name": "to",
          "type": "address"
        },
        {
          "internalType": "uint256",
          "name": "tokenId",
          "type": "uint256"
        }
      ],
      "name": "safeTransferFrom",
      "outputs": [],
      "stateMutability": "nonpayable",
      "type": "function"
    },
    {
      "inputs": [
        {
          "internalType": "address",
          "name": "from",
          "type": "address"
        },
        {
          "internalType": "address",
          "name": "to",
          "type": "address"
        },
        {
          "internalType": "uint256",
          "name": "tokenId",
          "type": "uint256"
        },
        {
          "internalType": "bytes",
          "name": "data",
          "type": "bytes"
        }
      ],
      "name": "safeTransferFrom",
      "outputs": [],
      "stateMutability": "nonpayable",
      "type": "function"
    },
    {
      "inputs": [
        {
          "internalType": "address",
          "name": "operator",
          "type": "address"
        },
        {
          "internalType": "bool",
          "name": "approved",
          "type": "bool"
        }
      ],
      "name": "setApprovalForAll",
      "outputs": [],
      "stateMutability": "nonpayable",
      "type": "function"
    },
    {
      "inputs": [
        {
          "internalType": "bytes4",
          "name": "interfaceId",
          "type": "bytes4"
        }
      ],
      "name": "supportsInterface",
      "outputs": [
        {
          "internalType": "bool",
          "name": "",
          "type": "bool"
        }
      ],
      "stateMutability": "view",
      "type": "function"
    },
    {
      "inputs": [],
      "name": "symbol",
      "outputs": [
        {
          "internalType": "string",
          "name": "",
          "type": "string"
        }
      ],
      "stateMutability": "view",
      "type": "function"
    },
    {
      "inputs": [
        {
          "internalType": "uint256",
          "name": "tokenId",
          "type": "uint256"
        }
      ],
      "name": "tokenURI",
      "outputs": [
        {
          "internalType": "string",
          "name": "",
          "type": "string"
        }
      ],
      "stateMutability": "view",
      "type": "function"
    },
    {
      "inputs": [
        {
          "internalType": "address",
          "name": "from",
          "type": "address"
        },
        {
          "internalType": "address",
          "name": "to",
          "type": "address"
        },
        {
          "internalType": "uint256",
          "name": "tokenId",
          "type": "uint256"
        }
      ],
      "name": "transferFrom",
      "outputs": [],
      "stateMutability": "nonpayable",
      "type": "function"
    },
    {
      "inputs": [
        {
          "internalType": "address",
          "name": "newOwner",
          "type": "address"
        }
      ],
      "name": "transferOwnership",
      "outputs": [],
      "stateMutability": "nonpayable",
      "type": "function"
    }
  ],
  "bytecode": "0x60806040523480156200001157600080fd5b5060405162001c2738038062001c2783398101604081905262000034916200012c565b80604051806040016040528060058152602001645847616d6560d81b81525060405180604001604052806002815260200161584760f01b81525081600090816200007f919062000203565b5060016200008e828262000203565b5050506001600160a01b038116620000c057604051631e4fbdf760e01b81526000600482015260240160405180910390fd5b620000cb81620000da565b5050620f4240600855620002cf565b600780546001600160a01b038381166001600160a01b0319831681179093556040519116919082907f8be0079c531659141344cd1fd0a4f28419497f9722a3daafe3b4186f6b6457e090600090a35050565b6000602082840312156200013f57600080fd5b81516001600160a01b03811681146200015757600080fd5b9392505050565b634e487b7160e01b600052604160045260246000fd5b600181811c908216806200018957607f821691505b602082108103620001aa57634e487b7160e01b600052602260045260246000fd5b50919050565b601f821115620001fe57600081815260208120601f850160051c81016020861015620001d95750805b601f850160051c820191505b81811015620001fa57828155600101620001e5565b5050505b505050565b81516001600160401b038111156200021f576200021f6200015e565b620002378162000230845462000174565b84620001b0565b602080601f8311600181146200026f5760008415620002565750858301515b600019600386901b1c1916600185901b178555620001fa565b600085815260208120601f198616915b82811015620002a0578886015182559484019460019091019084016200027f565b5085821015620002bf5787850151600019600388901b60f8161c191681555b5050505050600190811b01905550565b61194880620002df6000396000f3fe608060405234801561001057600080fd5b50600436106101215760003560e01c80636352211e116100ad578063a22cb46511610071578063a22cb46514610264578063b88d4fde14610277578063c87b56dd1461028a578063e985e9c51461029d578063f2fde38b146102b057600080fd5b80636352211e1461021d57806370a0823114610230578063715018a6146102435780638da5cb5b1461024b57806395d89b411461025c57600080fd5b806323b872dd116100f457806323b872dd146101a35780633c01e924146101b657806342842e0e146101e457806342966c68146101f757806362bdfceb1461020a57600080fd5b806301ffc9a71461012657806306fdde031461014e578063081812fc14610163578063095ea7b31461018e575b600080fd5b61013961013436600461111f565b6102c3565b60405190151581526020015b60405180910390f35b6101566102d4565b604051610145919061118c565b61017661017136600461119f565b610366565b6040516001600160a01b039091168152602001610145565b6101a161019c3660046111d4565b61038f565b005b6101a16101b13660046111fe565b61039e565b6101d66101c436600461119f565b60009081526009602052604090205490565b604051908152602001610145565b6101a16101f23660046111fe565b61042e565b6101a161020536600461119f565b61044e565b6101a161021836600461123a565b61045a565b61017661022b36600461119f565b6104a6565b6101d661023e366004611266565b6104b1565b6101a16104f9565b6007546001600160a01b0316610176565b61015661050d565b6101a1610272366004611281565b61051c565b6101a16102853660046112d3565b610527565b61015661029836600461119f565b61053e565b6101396102ab3660046113af565b610549565b6101a16102be366004611266565b610577565b60006102ce826105b5565b92915050565b6060600080546102e3906113d9565b80601f016020809104026020016040519081016040528092919081815260200182805461030f906113d9565b801561035c5780601f106103315761010080835404028352916020019161035c565b820191906000526020600020905b81548152906001019060200180831161033f57829003601f168201915b5050505050905090565b6000610371826105da565b506000828152600460205260409020546001600160a01b03166102ce565b61039a828233610613565b5050565b6001600160a01b0382166103cd57604051633250574960e11b8152600060048201526024015b60405180910390fd5b60006103da838333610620565b9050836001600160a01b0316816001600160a01b031614610428576040516364283d7b60e01b81526001600160a01b03808616600483015260248201849052821660448201526064016103c4565b50505050565b61044983838360405180602001604052806000815250610527565b505050565b61039a60008233610620565b610462610719565b600880546000918261047383611429565b90915550600081815260096020526040902084905590506104948282610746565b610449816104a185610760565b6107c2565b60006102ce826105da565b60006001600160a01b0382166104dd576040516322718ad960e21b8152600060048201526024016103c4565b506001600160a01b031660009081526003602052604090205490565b610501610719565b61050b6000610812565b565b6060600180546102e3906113d9565b61039a338383610864565b61053284848461039e565b61042884848484610903565b60606102ce82610a2c565b6001600160a01b03918216600090815260056020908152604080832093909416825291909152205460ff1690565b61057f610719565b6001600160a01b0381166105a957604051631e4fbdf760e01b8152600060048201526024016103c4565b6105b281610812565b50565b60006001600160e01b03198216632483248360e11b14806102ce57506102ce82610b3d565b6000818152600260205260408120546001600160a01b0316806102ce57604051637e27328960e01b8152600481018490526024016103c4565b6104498383836001610b8d565b6000828152600260205260408120546001600160a01b039081169083161561064d5761064d818486610c93565b6001600160a01b0381161561068b5761066a600085600080610b8d565b6001600160a01b038116600090815260036020526040902080546000190190555b6001600160a01b038516156106ba576001600160a01b0385166000908152600360205260409020805460010190555b60008481526002602052604080822080546001600160a01b0319166001600160a01b0389811691821790925591518793918516917fddf252ad1be2c89b69c2b068fc378daa952ba7f163c4a11628f55a4df523b3ef91a4949350505050565b6007546001600160a01b0316331461050b5760405163118cdaa760e01b81523360048201526024016103c4565b61039a828260405180602001604052806000815250610cf7565b606061079c61076e83610d0e565b61077784610d0e565b60405160200161078892919061145e565b604051602081830303815290604052610da1565b6040516020016107ac91906116d3565b6040516020818303038152906040529050919050565b60008281526006602052604090206107da8282611766565b506040518281527ff8e1a15aba9398e019f0b49df1a4fde98ee17ae345cb5f6b5e2c27f5033e8ce79060200160405180910390a15050565b600780546001600160a01b038381166001600160a01b0319831681179093556040519116919082907f8be0079c531659141344cd1fd0a4f28419497f9722a3daafe3b4186f6b6457e090600090a35050565b6001600160a01b03821661089657604051630b61174360e31b81526001600160a01b03831660048201526024016103c4565b6001600160a01b03838116600081815260056020908152604080832094871680845294825291829020805460ff191686151590811790915591519182527f17307eab39ab6107e8899845ad3d59bd9653f200f220920489ca2b5937696c31910160405180910390a3505050565b6001600160a01b0383163b1561042857604051630a85bd0160e11b81526001600160a01b0384169063150b7a0290610945903390889087908790600401611826565b6020604051808303816000875af1925050508015610980575060408051601f3d908101601f1916820190925261097d91810190611863565b60015b6109e9573d8080156109ae576040519150601f19603f3d011682016040523d82523d6000602084013e6109b3565b606091505b5080516000036109e157604051633250574960e11b81526001600160a01b03851660048201526024016103c4565b805181602001fd5b6001600160e01b03198116630a85bd0160e11b14610a2557604051633250574960e11b81526001600160a01b03851660048201526024016103c4565b5050505050565b6060610a37826105da565b5060008281526006602052604081208054610a51906113d9565b80601f0160208091040260200160405190810160405280929190818152602001828054610a7d906113d9565b8015610aca5780601f10610a9f57610100808354040283529160200191610aca565b820191906000526020600020905b815481529060010190602001808311610aad57829003601f168201915b505050505090506000610ae860408051602081019091526000815290565b90508051600003610afa575092915050565b815115610b2c578082604051602001610b14929190611880565b60405160208183030381529060405292505050919050565b610b3584610ef4565b949350505050565b60006001600160e01b031982166380ac58cd60e01b1480610b6e57506001600160e01b03198216635b5e139f60e01b145b806102ce57506301ffc9a760e01b6001600160e01b03198316146102ce565b8080610ba157506001600160a01b03821615155b15610c63576000610bb1846105da565b90506001600160a01b03831615801590610bdd5750826001600160a01b0316816001600160a01b031614155b8015610bf05750610bee8184610549565b155b15610c195760405163a9fbf51f60e01b81526001600160a01b03841660048201526024016103c4565b8115610c615783856001600160a01b0316826001600160a01b03167f8c5be1e5ebec7d5bd14f71427d1e84f3dd0314c0f7b2291e5b200ac8c7c3b92560405160405180910390a45b505b5050600090815260046020526040902080546001600160a01b0319166001600160a01b0392909216919091179055565b610c9e838383610f69565b610449576001600160a01b038316610ccc57604051637e27328960e01b8152600481018290526024016103c4565b60405163177e802f60e01b81526001600160a01b0383166004820152602481018290526044016103c4565b610d018383610fcc565b6104496000848484610903565b60606000610d1b83611031565b600101905060008167ffffffffffffffff811115610d3b57610d3b6112bd565b6040519080825280601f01601f191660200182016040528015610d65576020820181803683370190505b5090508181016020015b600019016f181899199a1a9b1b9c1cb0b131b232b360811b600a86061a8153600a8504945084610d6f57509392505050565b60608151600003610dc057505060408051602081019091526000815290565b60006040518060600160405280604081526020016118fc6040913990506000600384516002610def91906118af565b610df991906118c2565b610e049060046118e4565b67ffffffffffffffff811115610e1c57610e1c6112bd565b6040519080825280601f01601f191660200182016040528015610e46576020820181803683370190505b509050600182016020820185865187015b80821015610eb2576003820191508151603f8160121c168501518453600184019350603f81600c1c168501518453600184019350603f8160061c168501518453600184019350603f8116850151845350600183019250610e57565b5050600386510660018114610ece5760028114610ee157610ee9565b603d6001830353603d6002830353610ee9565b603d60018303535b509195945050505050565b6060610eff826105da565b506000610f1760408051602081019091526000815290565b90506000815111610f375760405180602001604052806000815250610f62565b80610f4184610d0e565b604051602001610f52929190611880565b6040516020818303038152906040525b9392505050565b60006001600160a01b03831615801590610b355750826001600160a01b0316846001600160a01b03161480610fa35750610fa38484610549565b80610b355750506000908152600460205260409020546001600160a01b03908116911614919050565b6001600160a01b038216610ff657604051633250574960e11b8152600060048201526024016103c4565b600061100483836000610620565b90506001600160a01b03811615610449576040516339e3563760e11b8152600060048201526024016103c4565b60008072184f03e93ff9f4daa797ed6e38ed64bf6a1f0160401b83106110705772184f03e93ff9f4daa797ed6e38ed64bf6a1f0160401b830492506040015b6d04ee2d6d415b85acef8100000000831061109c576d04ee2d6d415b85acef8100000000830492506020015b662386f26fc1000083106110ba57662386f26fc10000830492506010015b6305f5e10083106110d2576305f5e100830492506008015b61271083106110e657612710830492506004015b606483106110f8576064830492506002015b600a83106102ce5760010192915050565b6001600160e01b0319811681146105b257600080fd5b60006020828403121561113157600080fd5b8135610f6281611109565b60005b8381101561115757818101518382015260200161113f565b50506000910152565b6000815180845261117881602086016020860161113c565b601f01601f19169290920160200192915050565b602081526000610f626020830184611160565b6000602082840312156111b157600080fd5b5035919050565b80356001600160a01b03811681146111cf57600080fd5b919050565b600080604083850312156111e757600080fd5b6111f0836111b8565b946020939093013593505050565b60008060006060848603121561121357600080fd5b61121c846111b8565b925061122a602085016111b8565b9150604084013590509250925092565b6000806040838503121561124d57600080fd5b8235915061125d602084016111b8565b90509250929050565b60006020828403121561127857600080fd5b610f62826111b8565b6000806040838503121561129457600080fd5b61129d836111b8565b9150602083013580151581146112b257600080fd5b809150509250929050565b634e487b7160e01b600052604160045260246000fd5b600080600080608085870312156112e957600080fd5b6112f2856111b8565b9350611300602086016111b8565b925060408501359150606085013567ffffffffffffffff8082111561132457600080fd5b818701915087601f83011261133857600080fd5b81358181111561134a5761134a6112bd565b604051601f8201601f19908116603f01168101908382118183101715611372576113726112bd565b816040528281528a602084870101111561138b57600080fd5b82602086016020830137600060208483010152809550505050505092959194509250565b600080604083850312156113c257600080fd5b6113cb836111b8565b915061125d602084016111b8565b600181811c908216806113ed57607f821691505b60208210810361140d57634e487b7160e01b600052602260045260246000fd5b50919050565b634e487b7160e01b600052601160045260246000fd5b60006001820161143b5761143b611413565b5060010190565b6000815161145481856020860161113c565b9290920192915050565b6e03d913730b6b2911d112c23b0b6b29608d1b8152600160fd1b600f820152825160009061149381601085016020880161113c565b600f60fb1b60109184019182015261088b60f21b601182018190527f226465736372697074696f6e223a2258504144204d454d42455220434152442e601383015260338201527f22696d616765223a22697066733a2f2f6261667962656967716b7a6875736e6d60358201527f6a6d6867737a7a6876736e7064787966626f636b6e7064326c6470766d646f3360558201526c0d1b190d1d1dde5d4d195e488b609a1b60758201526116ca6116bc6116816116416116016115c06115b16115a461159e60828a017f2261747472696275746573223a205b7b2274726169745f74797065223a224d75815271363a34b83632b91116113b30b63ab2911d1160711b602082015260320190565b8c611442565b600f60fb1b815260010190565b62089f4b60ea1b815260030190565b7f7b2274726169745f74797065223a2257656273697465222c2276616c7565223a81526e0899d85b595e1c18590b9a5bc89f4b608a1b6020820152602f0190565b7f7b2274726169745f74797065223a2254656c656772616d222c2276616c75652281526d0e889019d85b595e1c1859089f4b60921b6020820152602e0190565b7f7b2274726169745f74797065223a2254776974746572222c2276616c7565223a81526d089019db5e1c18590b9a5bc89f4b60921b6020820152602e0190565b7f7b2274726169745f74797065223a22476974687562222c2276616c7565223a2281526840676d78706164227d60b81b602082015260290190565b615d7d60f01b815260020190565b95945050505050565b7f646174613a6170706c69636174696f6e2f6a736f6e3b6261736536342c00000081526000825161170b81601d85016020870161113c565b91909101601d0192915050565b601f82111561044957600081815260208120601f850160051c8101602086101561173f5750805b601f850160051c820191505b8181101561175e5782815560010161174b565b505050505050565b815167ffffffffffffffff811115611780576117806112bd565b6117948161178e84546113d9565b84611718565b602080601f8311600181146117c957600084156117b15750858301515b600019600386901b1c1916600185901b17855561175e565b600085815260208120601f198616915b828110156117f8578886015182559484019460019091019084016117d9565b50858210156118165787850151600019600388901b60f8161c191681555b5050505050600190811b01905550565b6001600160a01b038581168252841660208201526040810183905260806060820181905260009061185990830184611160565b9695505050505050565b60006020828403121561187557600080fd5b8151610f6281611109565b6000835161189281846020880161113c565b8351908301906118a681836020880161113c565b01949350505050565b808201808211156102ce576102ce611413565b6000826118df57634e487b7160e01b600052601260045260246000fd5b500490565b80820281158282048414176102ce576102ce61141356fe4142434445464748494a4b4c4d4e4f505152535455565758595a6162636465666768696a6b6c6d6e6f707172737475767778797a303132333435363738392b2fa164736f6c6343000814000a",
  "linkReferences": {},
  "deployedLinkReferences": {}
}