{
  "_format": "hh-sol-artifact-1",
  "contractName": "XGameCard1155",
  "sourceName": "contracts/tokens/XGameCard1155.sol",
  "abi": [
    {
      "inputs": [
        {
          "internalType": "string",
          "name": "name_",
          "type": "string"
        },
        {
          "internalType": "string",
          "name": "symbol_",
          "type": "string"
        },
        {
          "internalType": "address",
          "name": "initialOwner_",
          "type": "address"
        }
      ],
      "stateMutability": "nonpayable",
      "type": "constructor"
    },
    {
      "inputs": [
        {
          "internalType": "address",
          "name": "sender",
          "type": "address"
        },
        {
          "internalType": "uint256",
          "name": "balance",
          "type": "uint256"
        },
        {
          "internalType": "uint256",
          "name": "needed",
          "type": "uint256"
        },
        {
          "internalType": "uint256",
          "name": "tokenId",
          "type": "uint256"
        }
      ],
      "name": "ERC1155InsufficientBalance",
      "type": "error"
    },
    {
      "inputs": [
        {
          "internalType": "address",
          "name": "approver",
          "type": "address"
        }
      ],
      "name": "ERC1155InvalidApprover",
      "type": "error"
    },
    {
      "inputs": [
        {
          "internalType": "uint256",
          "name": "idsLength",
          "type": "uint256"
        },
        {
          "internalType": "uint256",
          "name": "valuesLength",
          "type": "uint256"
        }
      ],
      "name": "ERC1155InvalidArrayLength",
      "type": "error"
    },
    {
      "inputs": [
        {
          "internalType": "address",
          "name": "operator",
          "type": "address"
        }
      ],
      "name": "ERC1155InvalidOperator",
      "type": "error"
    },
    {
      "inputs": [
        {
          "internalType": "address",
          "name": "receiver",
          "type": "address"
        }
      ],
      "name": "ERC1155InvalidReceiver",
      "type": "error"
    },
    {
      "inputs": [
        {
          "internalType": "address",
          "name": "sender",
          "type": "address"
        }
      ],
      "name": "ERC1155InvalidSender",
      "type": "error"
    },
    {
      "inputs": [
        {
          "internalType": "address",
          "name": "operator",
          "type": "address"
        },
        {
          "internalType": "address",
          "name": "owner",
          "type": "address"
        }
      ],
      "name": "ERC1155MissingApprovalForAll",
      "type": "error"
    },
    {
      "inputs": [],
      "name": "Invalid_Action",
      "type": "error"
    },
    {
      "inputs": [],
      "name": "Invalid_Creator",
      "type": "error"
    },
    {
      "inputs": [],
      "name": "Invalid_Minter",
      "type": "error"
    },
    {
      "inputs": [
        {
          "internalType": "address",
          "name": "owner",
          "type": "address"
        }
      ],
      "name": "OwnableInvalidOwner",
      "type": "error"
    },
    {
      "inputs": [
        {
          "internalType": "address",
          "name": "account",
          "type": "address"
        }
      ],
      "name": "OwnableUnauthorizedAccount",
      "type": "error"
    },
    {
      "inputs": [],
      "name": "ReentrancyGuardReentrantCall",
      "type": "error"
    },
    {
      "anonymous": false,
      "inputs": [
        {
          "indexed": true,
          "internalType": "address",
          "name": "account",
          "type": "address"
        },
        {
          "indexed": true,
          "internalType": "address",
          "name": "operator",
          "type": "address"
        },
        {
          "indexed": false,
          "internalType": "bool",
          "name": "approved",
          "type": "bool"
        }
      ],
      "name": "ApprovalForAll",
      "type": "event"
    },
    {
      "anonymous": false,
      "inputs": [
        {
          "indexed": true,
          "internalType": "address",
          "name": "previousOwner",
          "type": "address"
        },
        {
          "indexed": true,
          "internalType": "address",
          "name": "newOwner",
          "type": "address"
        }
      ],
      "name": "OwnershipTransferred",
      "type": "event"
    },
    {
      "anonymous": false,
      "inputs": [
        {
          "indexed": true,
          "internalType": "address",
          "name": "operator",
          "type": "address"
        },
        {
          "indexed": true,
          "internalType": "address",
          "name": "from",
          "type": "address"
        },
        {
          "indexed": true,
          "internalType": "address",
          "name": "to",
          "type": "address"
        },
        {
          "indexed": false,
          "internalType": "uint256[]",
          "name": "ids",
          "type": "uint256[]"
        },
        {
          "indexed": false,
          "internalType": "uint256[]",
          "name": "values",
          "type": "uint256[]"
        }
      ],
      "name": "TransferBatch",
      "type": "event"
    },
    {
      "anonymous": false,
      "inputs": [
        {
          "indexed": true,
          "internalType": "address",
          "name": "operator",
          "type": "address"
        },
        {
          "indexed": true,
          "internalType": "address",
          "name": "from",
          "type": "address"
        },
        {
          "indexed": true,
          "internalType": "address",
          "name": "to",
          "type": "address"
        },
        {
          "indexed": false,
          "internalType": "uint256",
          "name": "id",
          "type": "uint256"
        },
        {
          "indexed": false,
          "internalType": "uint256",
          "name": "value",
          "type": "uint256"
        }
      ],
      "name": "TransferSingle",
      "type": "event"
    },
    {
      "anonymous": false,
      "inputs": [
        {
          "indexed": false,
          "internalType": "string",
          "name": "value",
          "type": "string"
        },
        {
          "indexed": true,
          "internalType": "uint256",
          "name": "id",
          "type": "uint256"
        }
      ],
      "name": "URI",
      "type": "event"
    },
    {
      "inputs": [
        {
          "internalType": "address",
          "name": "account",
          "type": "address"
        },
        {
          "internalType": "uint256",
          "name": "id",
          "type": "uint256"
        }
      ],
      "name": "balanceOf",
      "outputs": [
        {
          "internalType": "uint256",
          "name": "",
          "type": "uint256"
        }
      ],
      "stateMutability": "view",
      "type": "function"
    },
    {
      "inputs": [
        {
          "internalType": "address[]",
          "name": "accounts",
          "type": "address[]"
        },
        {
          "internalType": "uint256[]",
          "name": "ids",
          "type": "uint256[]"
        }
      ],
      "name": "balanceOfBatch",
      "outputs": [
        {
          "internalType": "uint256[]",
          "name": "",
          "type": "uint256[]"
        }
      ],
      "stateMutability": "view",
      "type": "function"
    },
    {
      "inputs": [
        {
          "internalType": "uint256",
          "name": "",
          "type": "uint256"
        }
      ],
      "name": "claimed",
      "outputs": [
        {
          "internalType": "bool",
          "name": "",
          "type": "bool"
        }
      ],
      "stateMutability": "view",
      "type": "function"
    },
    {
      "inputs": [
        {
          "internalType": "uint256",
          "name": "_projectId",
          "type": "uint256"
        }
      ],
      "name": "createProject",
      "outputs": [],
      "stateMutability": "nonpayable",
      "type": "function"
    },
    {
      "inputs": [
        {
          "internalType": "address",
          "name": "",
          "type": "address"
        }
      ],
      "name": "creators",
      "outputs": [
        {
          "internalType": "bool",
          "name": "",
          "type": "bool"
        }
      ],
      "stateMutability": "view",
      "type": "function"
    },
    {
      "inputs": [
        {
          "internalType": "uint256",
          "name": "id",
          "type": "uint256"
        }
      ],
      "name": "exists",
      "outputs": [
        {
          "internalType": "bool",
          "name": "",
          "type": "bool"
        }
      ],
      "stateMutability": "view",
      "type": "function"
    },
    {
      "inputs": [
        {
          "internalType": "address",
          "name": "_user",
          "type": "address"
        }
      ],
      "name": "getAllProjectsNFTs",
      "outputs": [
        {
          "components": [
            {
              "internalType": "uint256",
              "name": "projectId",
              "type": "uint256"
            },
            {
              "internalType": "uint256[]",
              "name": "userNFTs",
              "type": "uint256[]"
            }
          ],
          "internalType": "struct XGameCard1155.TGetParams[]",
          "name": "",
          "type": "tuple[]"
        }
      ],
      "stateMutability": "view",
      "type": "function"
    },
    {
      "inputs": [
        {
          "internalType": "uint256",
          "name": "tokenId",
          "type": "uint256"
        }
      ],
      "name": "getMultipler",
      "outputs": [
        {
          "internalType": "uint256",
          "name": "mul",
          "type": "uint256"
        }
      ],
      "stateMutability": "view",
      "type": "function"
    },
    {
      "inputs": [
        {
          "internalType": "uint256",
          "name": "tokenId",
          "type": "uint256"
        }
      ],
      "name": "getNFTClaimed",
      "outputs": [
        {
          "internalType": "bool",
          "name": "isClaimed",
          "type": "bool"
        }
      ],
      "stateMutability": "view",
      "type": "function"
    },
    {
      "inputs": [
        {
          "internalType": "uint256",
          "name": "_tokenId",
          "type": "uint256"
        }
      ],
      "name": "getNFTMetadata",
      "outputs": [
        {
          "components": [
            {
              "internalType": "uint256",
              "name": "multipler",
              "type": "uint256"
            },
            {
              "internalType": "string",
              "name": "name",
              "type": "string"
            },
            {
              "internalType": "string",
              "name": "website",
              "type": "string"
            },
            {
              "internalType": "string",
              "name": "twitter",
              "type": "string"
            },
            {
              "internalType": "string",
              "name": "telegram",
              "type": "string"
            },
            {
              "internalType": "string",
              "name": "github",
              "type": "string"
            },
            {
              "internalType": "string",
              "name": "image",
              "type": "string"
            }
          ],
          "internalType": "struct XGameCard1155.TNFTMetadata",
          "name": "",
          "type": "tuple"
        }
      ],
      "stateMutability": "view",
      "type": "function"
    },
    {
      "inputs": [
        {
          "internalType": "uint256",
          "name": "_projectId",
          "type": "uint256"
        }
      ],
      "name": "getProject",
      "outputs": [
        {
          "components": [
            {
              "internalType": "bool",
              "name": "isExist",
              "type": "bool"
            },
            {
              "internalType": "uint256",
              "name": "nextTokenId",
              "type": "uint256"
            }
          ],
          "internalType": "struct XGameCard1155.TNFT",
          "name": "",
          "type": "tuple"
        }
      ],
      "stateMutability": "view",
      "type": "function"
    },
    {
      "inputs": [
        {
          "internalType": "address",
          "name": "account",
          "type": "address"
        },
        {
          "internalType": "address",
          "name": "operator",
          "type": "address"
        }
      ],
      "name": "isApprovedForAll",
      "outputs": [
        {
          "internalType": "bool",
          "name": "",
          "type": "bool"
        }
      ],
      "stateMutability": "view",
      "type": "function"
    },
    {
      "inputs": [
        {
          "internalType": "uint256",
          "name": "_projectId",
          "type": "uint256"
        },
        {
          "components": [
            {
              "internalType": "uint256",
              "name": "multipler",
              "type": "uint256"
            },
            {
              "internalType": "string",
              "name": "name",
              "type": "string"
            },
            {
              "internalType": "string",
              "name": "website",
              "type": "string"
            },
            {
              "internalType": "string",
              "name": "twitter",
              "type": "string"
            },
            {
              "internalType": "string",
              "name": "telegram",
              "type": "string"
            },
            {
              "internalType": "string",
              "name": "github",
              "type": "string"
            },
            {
              "internalType": "string",
              "name": "image",
              "type": "string"
            }
          ],
          "internalType": "struct XGameCard1155.TNFTMetadata",
          "name": "_params",
          "type": "tuple"
        },
        {
          "internalType": "address",
          "name": "to",
          "type": "address"
        },
        {
          "internalType": "bytes",
          "name": "data",
          "type": "bytes"
        }
      ],
      "name": "mint",
      "outputs": [],
      "stateMutability": "nonpayable",
      "type": "function"
    },
    {
      "inputs": [
        {
          "internalType": "address",
          "name": "to",
          "type": "address"
        },
        {
          "internalType": "uint256[]",
          "name": "ids",
          "type": "uint256[]"
        },
        {
          "internalType": "uint256[]",
          "name": "amounts",
          "type": "uint256[]"
        },
        {
          "internalType": "bytes",
          "name": "data",
          "type": "bytes"
        }
      ],
      "name": "mintBatch",
      "outputs": [],
      "stateMutability": "nonpayable",
      "type": "function"
    },
    {
      "inputs": [
        {
          "internalType": "address",
          "name": "",
          "type": "address"
        }
      ],
      "name": "minters",
      "outputs": [
        {
          "internalType": "bool",
          "name": "",
          "type": "bool"
        }
      ],
      "stateMutability": "view",
      "type": "function"
    },
    {
      "inputs": [],
      "name": "name",
      "outputs": [
        {
          "internalType": "string",
          "name": "",
          "type": "string"
        }
      ],
      "stateMutability": "view",
      "type": "function"
    },
    {
      "inputs": [
        {
          "internalType": "uint256",
          "name": "",
          "type": "uint256"
        }
      ],
      "name": "nftInfo",
      "outputs": [
        {
          "internalType": "bool",
          "name": "isExist",
          "type": "bool"
        },
        {
          "internalType": "uint256",
          "name": "nextTokenId",
          "type": "uint256"
        }
      ],
      "stateMutability": "view",
      "type": "function"
    },
    {
      "inputs": [
        {
          "internalType": "uint256",
          "name": "",
          "type": "uint256"
        }
      ],
      "name": "nftMetadata",
      "outputs": [
        {
          "internalType": "uint256",
          "name": "multipler",
          "type": "uint256"
        },
        {
          "internalType": "string",
          "name": "name",
          "type": "string"
        },
        {
          "internalType": "string",
          "name": "website",
          "type": "string"
        },
        {
          "internalType": "string",
          "name": "twitter",
          "type": "string"
        },
        {
          "internalType": "string",
          "name": "telegram",
          "type": "string"
        },
        {
          "internalType": "string",
          "name": "github",
          "type": "string"
        },
        {
          "internalType": "string",
          "name": "image",
          "type": "string"
        }
      ],
      "stateMutability": "view",
      "type": "function"
    },
    {
      "inputs": [],
      "name": "owner",
      "outputs": [
        {
          "internalType": "address",
          "name": "",
          "type": "address"
        }
      ],
      "stateMutability": "view",
      "type": "function"
    },
    {
      "inputs": [
        {
          "internalType": "uint256",
          "name": "",
          "type": "uint256"
        }
      ],
      "name": "projects",
      "outputs": [
        {
          "internalType": "uint256",
          "name": "",
          "type": "uint256"
        }
      ],
      "stateMutability": "view",
      "type": "function"
    },
    {
      "inputs": [],
      "name": "renounceOwnership",
      "outputs": [],
      "stateMutability": "nonpayable",
      "type": "function"
    },
    {
      "inputs": [
        {
          "internalType": "address",
          "name": "from",
          "type": "address"
        },
        {
          "internalType": "address",
          "name": "to",
          "type": "address"
        },
        {
          "internalType": "uint256[]",
          "name": "ids",
          "type": "uint256[]"
        },
        {
          "internalType": "uint256[]",
          "name": "values",
          "type": "uint256[]"
        },
        {
          "internalType": "bytes",
          "name": "data",
          "type": "bytes"
        }
      ],
      "name": "safeBatchTransferFrom",
      "outputs": [],
      "stateMutability": "nonpayable",
      "type": "function"
    },
    {
      "inputs": [
        {
          "internalType": "address",
          "name": "from",
          "type": "address"
        },
        {
          "internalType": "address",
          "name": "to",
          "type": "address"
        },
        {
          "internalType": "uint256",
          "name": "id",
          "type": "uint256"
        },
        {
          "internalType": "uint256",
          "name": "value",
          "type": "uint256"
        },
        {
          "internalType": "bytes",
          "name": "data",
          "type": "bytes"
        }
      ],
      "name": "safeTransferFrom",
      "outputs": [],
      "stateMutability": "nonpayable",
      "type": "function"
    },
    {
      "inputs": [
        {
          "internalType": "address",
          "name": "operator",
          "type": "address"
        },
        {
          "internalType": "bool",
          "name": "approved",
          "type": "bool"
        }
      ],
      "name": "setApprovalForAll",
      "outputs": [],
      "stateMutability": "nonpayable",
      "type": "function"
    },
    {
      "inputs": [
        {
          "internalType": "bool",
          "name": "_status",
          "type": "bool"
        },
        {
          "internalType": "address",
          "name": "_creator",
          "type": "address"
        }
      ],
      "name": "setCreators",
      "outputs": [],
      "stateMutability": "nonpayable",
      "type": "function"
    },
    {
      "inputs": [
        {
          "internalType": "bool",
          "name": "_status",
          "type": "bool"
        },
        {
          "internalType": "address",
          "name": "_minter",
          "type": "address"
        }
      ],
      "name": "setMinters",
      "outputs": [],
      "stateMutability": "nonpayable",
      "type": "function"
    },
    {
      "inputs": [
        {
          "internalType": "uint256",
          "name": "_projectId",
          "type": "uint256"
        },
        {
          "internalType": "address",
          "name": "_user",
          "type": "address"
        }
      ],
      "name": "supportsBalances",
      "outputs": [
        {
          "internalType": "uint256[]",
          "name": "",
          "type": "uint256[]"
        }
      ],
      "stateMutability": "view",
      "type": "function"
    },
    {
      "inputs": [
        {
          "internalType": "bytes4",
          "name": "interfaceId",
          "type": "bytes4"
        }
      ],
      "name": "supportsInterface",
      "outputs": [
        {
          "internalType": "bool",
          "name": "",
          "type": "bool"
        }
      ],
      "stateMutability": "view",
      "type": "function"
    },
    {
      "inputs": [],
      "name": "symbol",
      "outputs": [
        {
          "internalType": "string",
          "name": "",
          "type": "string"
        }
      ],
      "stateMutability": "view",
      "type": "function"
    },
    {
      "inputs": [],
      "name": "totalSupply",
      "outputs": [
        {
          "internalType": "uint256",
          "name": "",
          "type": "uint256"
        }
      ],
      "stateMutability": "view",
      "type": "function"
    },
    {
      "inputs": [
        {
          "internalType": "uint256",
          "name": "id",
          "type": "uint256"
        }
      ],
      "name": "totalSupply",
      "outputs": [
        {
          "internalType": "uint256",
          "name": "",
          "type": "uint256"
        }
      ],
      "stateMutability": "view",
      "type": "function"
    },
    {
      "inputs": [
        {
          "internalType": "address",
          "name": "newOwner",
          "type": "address"
        }
      ],
      "name": "transferOwnership",
      "outputs": [],
      "stateMutability": "nonpayable",
      "type": "function"
    },
    {
      "inputs": [
        {
          "internalType": "uint256",
          "name": "tokenId",
          "type": "uint256"
        }
      ],
      "name": "uri",
      "outputs": [
        {
          "internalType": "string",
          "name": "",
          "type": "string"
        }
      ],
      "stateMutability": "view",
      "type": "function"
    }
  ],
  "bytecode": "0x60806040523480156200001157600080fd5b5060405162003b0b38038062003b0b83398101604081905262000034916200021b565b60408051602081019091526000815281906200005081620000f2565b506001600160a01b0381166200008057604051631e4fbdf760e01b81526000600482015260240160405180910390fd5b6200008b8162000104565b50600160065560076200009f848262000337565b506008620000ae838262000337565b506001600160a01b03166000908152600d602090815260408083208054600160ff199182168117909255600e90935292208054909116909117905550620004039050565b600262000100828262000337565b5050565b600380546001600160a01b038381166001600160a01b0319831681179093556040519116919082907f8be0079c531659141344cd1fd0a4f28419497f9722a3daafe3b4186f6b6457e090600090a35050565b634e487b7160e01b600052604160045260246000fd5b600082601f8301126200017e57600080fd5b81516001600160401b03808211156200019b576200019b62000156565b604051601f8301601f19908116603f01168101908282118183101715620001c657620001c662000156565b81604052838152602092508683858801011115620001e357600080fd5b600091505b83821015620002075785820183015181830184015290820190620001e8565b600093810190920192909252949350505050565b6000806000606084860312156200023157600080fd5b83516001600160401b03808211156200024957600080fd5b62000257878388016200016c565b945060208601519150808211156200026e57600080fd5b506200027d868287016200016c565b604086015190935090506001600160a01b03811681146200029d57600080fd5b809150509250925092565b600181811c90821680620002bd57607f821691505b602082108103620002de57634e487b7160e01b600052602260045260246000fd5b50919050565b601f8211156200033257600081815260208120601f850160051c810160208610156200030d5750805b601f850160051c820191505b818110156200032e5782815560010162000319565b5050505b505050565b81516001600160401b0381111562000353576200035362000156565b6200036b81620003648454620002a8565b84620002e4565b602080601f831160018114620003a357600084156200038a5750858301515b600019600386901b1c1916600185901b1785556200032e565b600085815260208120601f198616915b82811015620003d457888601518255948401946001909101908401620003b3565b5085821015620003f35787850151600019600388901b60f8161c191681555b5050505050600190811b01905550565b6136f880620004136000396000f3fe608060405234801561001057600080fd5b50600436106101fa5760003560e01c80636795191d1161011a578063992034d7116100ad578063e985e9c51161007c578063e985e9c5146104e5578063f0f3f2c8146104f8578063f242432a14610566578063f2fde38b14610579578063f46eccc41461058c57600080fd5b8063992034d71461047c578063a22cb4651461048f578063bd85b039146104a2578063dbe7e3bd146104c257600080fd5b8063933166e1116100e9578063933166e11461041b578063958fd2191461043e57806395d89b4114610451578063983b7ebe1461045957600080fd5b80636795191d146103c55780636be9a6f1146103d8578063715018a6146103f85780638da5cb5b1461040057600080fd5b80631f8bc790116101925780634954101511610161578063495410151461034a5780634e1273f4146103705780634f558e79146103835780635d565ef0146103a557600080fd5b80631f8bc790146102c05780632eb2c2d6146103045780633c01e92414610317578063464eb0f51461033757600080fd5b80630fe63014116101ce5780630fe6301414610270578063107046bd1461029057806318160ddd146102a35780631f7fdffa146102ab57600080fd5b8062fdd58e146101ff57806301ffc9a71461022557806306fdde03146102485780630e89341c1461025d575b600080fd5b61021261020d3660046127f9565b6105af565b6040519081526020015b60405180910390f35b610238610233366004612839565b6105d7565b604051901515815260200161021c565b610250610627565b60405161021c91906128a6565b61025061026b3660046128b9565b6106b9565b61028361027e3660046128d2565b610a5c565b60405161021c9190612939565b61021261029e3660046128b9565b610b2f565b600554610212565b6102be6102b9366004612ab7565b610b50565b005b6102ed6102ce3660046128b9565b600a602052600090815260409020805460019091015460ff9091169082565b60408051921515835260208301919091520161021c565b6102be610312366004612b4f565b610b6a565b6102126103253660046128b9565b6000908152600b602052604090205490565b6102be610345366004612bf8565b610bd6565b61035d6103583660046128b9565b610cf3565b60405161021c9796959493929190612d32565b61028361037e366004612dbb565b61105e565b6102386103913660046128b9565b600090815260046020526040902054151590565b6103b86103b3366004612e7a565b611132565b60405161021c9190612e95565b6102be6103d3366004612f45565b611293565b6103eb6103e63660046128b9565b6112c3565b60405161021c9190612f6f565b6102be61169e565b6003546040516001600160a01b03909116815260200161021c565b610238610429366004612e7a565b600e6020526000908152604090205460ff1681565b6102be61044c366004612f45565b6116b2565b6102506116e2565b6102386104673660046128b9565b6000908152600c602052604090205460ff1690565b6102be61048a3660046128b9565b6116f1565b6102be61049d366004613032565b6117cf565b6102126104b03660046128b9565b60009081526004602052604090205490565b6102386104d03660046128b9565b600c6020526000908152604090205460ff1681565b6102386104f336600461305c565b6117de565b6105496105063660046128b9565b6040805180820190915260008082526020820152506000908152600a60209081526040918290208251808401909352805460ff1615158352600101549082015290565b60408051825115158152602092830151928101929092520161021c565b6102be610574366004613078565b61180c565b6102be610587366004612e7a565b61186b565b61023861059a366004612e7a565b600d6020526000908152604090205460ff1681565b6000818152602081815260408083206001600160a01b03861684529091529020545b92915050565b60006001600160e01b03198216636cdb3d1360e11b148061060857506001600160e01b031982166303a24d0760e21b145b806105d157506301ffc9a760e01b6001600160e01b03198316146105d1565b606060078054610636906130dc565b80601f0160208091040260200160405190810160405280929190818152602001828054610662906130dc565b80156106af5780601f10610684576101008083540402835291602001916106af565b820191906000526020600020905b81548152906001019060200180831161069257829003601f168201915b5050505050905090565b6000818152600b60209081526040808320815160e081019092528054825260018101805460609594840191906106ee906130dc565b80601f016020809104026020016040519081016040528092919081815260200182805461071a906130dc565b80156107675780601f1061073c57610100808354040283529160200191610767565b820191906000526020600020905b81548152906001019060200180831161074a57829003601f168201915b50505050508152602001600282018054610780906130dc565b80601f01602080910402602001604051908101604052809291908181526020018280546107ac906130dc565b80156107f95780601f106107ce576101008083540402835291602001916107f9565b820191906000526020600020905b8154815290600101906020018083116107dc57829003601f168201915b50505050508152602001600382018054610812906130dc565b80601f016020809104026020016040519081016040528092919081815260200182805461083e906130dc565b801561088b5780601f106108605761010080835404028352916020019161088b565b820191906000526020600020905b81548152906001019060200180831161086e57829003601f168201915b505050505081526020016004820180546108a4906130dc565b80601f01602080910402602001604051908101604052809291908181526020018280546108d0906130dc565b801561091d5780601f106108f25761010080835404028352916020019161091d565b820191906000526020600020905b81548152906001019060200180831161090057829003601f168201915b50505050508152602001600582018054610936906130dc565b80601f0160208091040260200160405190810160405280929190818152602001828054610962906130dc565b80156109af5780601f10610984576101008083540402835291602001916109af565b820191906000526020600020905b81548152906001019060200180831161099257829003601f168201915b505050505081526020016006820180546109c8906130dc565b80601f01602080910402602001604051908101604052809291908181526020018280546109f4906130dc565b8015610a415780601f10610a1657610100808354040283529160200191610a41565b820191906000526020600020905b815481529060010190602001808311610a2457829003601f168201915b5050505050815250509050610a55816118a9565b9392505050565b6060826000610a7382670de0b6b3a764000061312c565b6000838152600a6020526040812060010154919250610a928383613143565b6001600160401b03811115610aa957610aa961294c565b604051908082528060200260200182016040528015610ad2578160200160208202803683370190505b5090506000835b838111610b22576000610aec89836105af565b90508015610b195781848481518110610b0757610b07613156565b60209081029190910101526001909201915b50600101610ad9565b5090979650505050505050565b60098181548110610b3f57600080fd5b600091825260209091200154905081565b610b5861190d565b610b648484848461193a565b50505050565b336001600160a01b0386168114801590610b8b5750610b8986826117de565b155b15610bc15760405163711bec9160e11b81526001600160a01b038083166004830152871660248201526044015b60405180910390fd5b610bce8686868686611972565b505050505050565b336000818152600d602052604090205460ff16610c0657604051634ece7d6f60e11b815260040160405180910390fd5b6000858152600a602052604090205460ff16610c3557604051631927bd6360e01b815260040160405180910390fd5b6000858152600a6020908152604080832060019081018054820190819055808552600b8452919093208751815591870151909287929190820190610c7990826131b7565b5060408201516002820190610c8e90826131b7565b5060608201516003820190610ca390826131b7565b5060808201516004820190610cb890826131b7565b5060a08201516005820190610ccd90826131b7565b5060c08201516006820190610ce290826131b7565b50905050610bce84826001866119d9565b600b6020526000908152604090208054600182018054919291610d15906130dc565b80601f0160208091040260200160405190810160405280929190818152602001828054610d41906130dc565b8015610d8e5780601f10610d6357610100808354040283529160200191610d8e565b820191906000526020600020905b815481529060010190602001808311610d7157829003601f168201915b505050505090806002018054610da3906130dc565b80601f0160208091040260200160405190810160405280929190818152602001828054610dcf906130dc565b8015610e1c5780601f10610df157610100808354040283529160200191610e1c565b820191906000526020600020905b815481529060010190602001808311610dff57829003601f168201915b505050505090806003018054610e31906130dc565b80601f0160208091040260200160405190810160405280929190818152602001828054610e5d906130dc565b8015610eaa5780601f10610e7f57610100808354040283529160200191610eaa565b820191906000526020600020905b815481529060010190602001808311610e8d57829003601f168201915b505050505090806004018054610ebf906130dc565b80601f0160208091040260200160405190810160405280929190818152602001828054610eeb906130dc565b8015610f385780601f10610f0d57610100808354040283529160200191610f38565b820191906000526020600020905b815481529060010190602001808311610f1b57829003601f168201915b505050505090806005018054610f4d906130dc565b80601f0160208091040260200160405190810160405280929190818152602001828054610f79906130dc565b8015610fc65780601f10610f9b57610100808354040283529160200191610fc6565b820191906000526020600020905b815481529060010190602001808311610fa957829003601f168201915b505050505090806006018054610fdb906130dc565b80601f0160208091040260200160405190810160405280929190818152602001828054611007906130dc565b80156110545780601f1061102957610100808354040283529160200191611054565b820191906000526020600020905b81548152906001019060200180831161103757829003601f168201915b5050505050905087565b6060815183511461108f5781518351604051635b05999160e01b815260048101929092526024820152604401610bb8565b600083516001600160401b038111156110aa576110aa61294c565b6040519080825280602002602001820160405280156110d3578160200160208202803683370190505b50905060005b845181101561112a576020808202860101516110fd906020808402870101516105af565b82828151811061110f5761110f613156565b602090810291909101015261112381613276565b90506110d9565b509392505050565b60606000600980548060200260200160405190810160405280929190818152602001828054801561118257602002820191906000526020600020905b81548152602001906001019080831161116e575b505050505090506000815190506000816001600160401b038111156111a9576111a961294c565b6040519080825280602002602001820160405280156111ef57816020015b6040805180820190915260008152606060208201528152602001906001900390816111c75790505b5090506000805b8381101561128857600061122386838151811061121557611215613156565b602002602001015189610a5c565b80519091501561127f57604051806040016040528087848151811061124a5761124a613156565b602002602001015181526020018281525084848151811061126d5761126d613156565b60209081029190910101526001909201915b506001016111f6565b509095945050505050565b61129b61190d565b6001600160a01b03166000908152600d60205260409020805460ff1916911515919091179055565b6113036040518060e00160405280600081526020016060815260200160608152602001606081526020016060815260200160608152602001606081525090565b600b60008381526020019081526020016000206040518060e00160405290816000820154815260200160018201805461133b906130dc565b80601f0160208091040260200160405190810160405280929190818152602001828054611367906130dc565b80156113b45780601f10611389576101008083540402835291602001916113b4565b820191906000526020600020905b81548152906001019060200180831161139757829003601f168201915b505050505081526020016002820180546113cd906130dc565b80601f01602080910402602001604051908101604052809291908181526020018280546113f9906130dc565b80156114465780601f1061141b57610100808354040283529160200191611446565b820191906000526020600020905b81548152906001019060200180831161142957829003601f168201915b5050505050815260200160038201805461145f906130dc565b80601f016020809104026020016040519081016040528092919081815260200182805461148b906130dc565b80156114d85780601f106114ad576101008083540402835291602001916114d8565b820191906000526020600020905b8154815290600101906020018083116114bb57829003601f168201915b505050505081526020016004820180546114f1906130dc565b80601f016020809104026020016040519081016040528092919081815260200182805461151d906130dc565b801561156a5780601f1061153f5761010080835404028352916020019161156a565b820191906000526020600020905b81548152906001019060200180831161154d57829003601f168201915b50505050508152602001600582018054611583906130dc565b80601f01602080910402602001604051908101604052809291908181526020018280546115af906130dc565b80156115fc5780601f106115d1576101008083540402835291602001916115fc565b820191906000526020600020905b8154815290600101906020018083116115df57829003601f168201915b50505050508152602001600682018054611615906130dc565b80601f0160208091040260200160405190810160405280929190818152602001828054611641906130dc565b801561168e5780601f106116635761010080835404028352916020019161168e565b820191906000526020600020905b81548152906001019060200180831161167157829003601f168201915b5050505050815250509050919050565b6116a661190d565b6116b06000611a36565b565b6116ba61190d565b6001600160a01b03166000908152600e60205260409020805460ff1916911515919091179055565b606060088054610636906130dc565b336000818152600e602052604090205460ff16611721576040516339fcf9e760e21b815260040160405180910390fd5b6000828152600a602052604090205460ff161561175157604051631927bd6360e01b815260040160405180910390fd5b600061176583670de0b6b3a764000061312c565b6009805460018082019092557f6e1540171b6c0c960b71a7020d9f60077f6af931a8bbf590da0223dacf75c7af0185905560408051808201825282815260208082019485526000978852600a905295209451855460ff191690151517855590519301929092555050565b6117da338383611a88565b5050565b6001600160a01b03918216600090815260016020908152604080832093909416825291909152205460ff1690565b336001600160a01b038616811480159061182d575061182b86826117de565b155b1561185e5760405163711bec9160e11b81526001600160a01b03808316600483015287166024820152604401610bb8565b610bce8686868686611b1e565b61187361190d565b6001600160a01b03811661189d57604051631e4fbdf760e01b815260006004820152602401610bb8565b6118a681611a36565b50565b60606118e782602001516118bc84611bac565b8460c001516040516020016118d39392919061328f565b604051602081830303815290604052611dfb565b6040516020016118f79190613386565b6040516020818303038152906040529050919050565b6003546001600160a01b031633146116b05760405163118cdaa760e01b8152336004820152602401610bb8565b6001600160a01b03841661196457604051632bfa23e760e11b815260006004820152602401610bb8565b610b64600085858585611f4d565b6001600160a01b03841661199c57604051632bfa23e760e11b815260006004820152602401610bb8565b6001600160a01b0385166119c557604051626a0d4560e21b815260006004820152602401610bb8565b6119d28585858585611f4d565b5050505050565b6001600160a01b038416611a0357604051632bfa23e760e11b815260006004820152602401610bb8565b60408051600180825260208201869052818301908152606082018590526080820190925290610bce600087848487611f4d565b600380546001600160a01b038381166001600160a01b0319831681179093556040519116919082907f8be0079c531659141344cd1fd0a4f28419497f9722a3daafe3b4186f6b6457e090600090a35050565b6001600160a01b038216611ab15760405162ced3e160e81b815260006004820152602401610bb8565b6001600160a01b03838116600081815260016020908152604080832094871680845294825291829020805460ff191686151590811790915591519182527f17307eab39ab6107e8899845ad3d59bd9653f200f220920489ca2b5937696c31910160405180910390a3505050565b6001600160a01b038416611b4857604051632bfa23e760e11b815260006004820152602401610bb8565b6001600160a01b038516611b7157604051626a0d4560e21b815260006004820152602401610bb8565b60408051600180825260208201869052818301908152606082018590526080820190925290611ba38787848487611f4d565b50505050505050565b6060611bec604051806040016040528060048152602001634e414d4560e01b81525060405180602001604052806000815250846020015160006001611fa0565b905080611c396040518060400160405280600881526020016726aaa62a24a822a960c11b81525060405180602001604052806000815250611c3086600001516120e3565b60006001611fa0565b604051602001611c4a9291906133cb565b604051602081830303815290604052905080611c9d604051806040016040528060078152602001665745425349544560c81b81525060405180602001604052806000815250856040015160006001611fa0565b604051602001611cae9291906133cb565b604051602081830303815290604052905080611d01604051806040016040528060078152602001662a2ba4aa2a22a960c91b81525060405180602001604052806000815250856060015160006001611fa0565b604051602001611d129291906133cb565b604051602081830303815290604052905080611d666040518060400160405280600881526020016754454c454752414d60c01b81525060405180602001604052806000815250856080015160006001611fa0565b604051602001611d779291906133cb565b604051602081830303815290604052905080611dc86040518060400160405280600681526020016523a4aa242aa160d11b815250604051806020016040528060008152508560a00151600080611fa0565b604051602001611dd99291906133cb565b6040516020818303038152906040529050806040516020016118f791906133fa565b60608151600003611e1a57505060408051602081019091526000815290565b60006040518060600160405280604081526020016136ac6040913990506000600384516002611e49919061342e565b611e539190613441565b611e5e90600461312c565b6001600160401b03811115611e7557611e7561294c565b6040519080825280601f01601f191660200182016040528015611e9f576020820181803683370190505b509050600182016020820185865187015b80821015611f0b576003820191508151603f8160121c168501518453600184019350603f81600c1c168501518453600184019350603f8160061c168501518453600184019350603f8116850151845350600183019250611eb0565b5050600386510660018114611f275760028114611f3a57611f42565b603d6001830353603d6002830353611f42565b603d60018303535b509195945050505050565b611f5985858585612175565b6001600160a01b038416156119d25782513390600103611f925760208481015190840151611f8b838989858589612181565b5050610bce565b610bce8187878787876122a5565b606085604051602001611fb39190613463565b60408051601f1981840301815260008352602083018083528351902090935091611fdf918891016134a7565b604051602081830303815290604052805190602001201461201f57808560405160200161200d9291906134c3565b60405160208183030381529060405290505b808460405160200161203292919061351d565b60408051601f19818403018152919052905082156120775780612054846120e3565b60405160200161206592919061356f565b60405160208183030381529060405290505b808261209c57604051806040016040528060018152602001607d60f81b8152506120b8565b604051806040016040528060028152602001611f4b60f21b8152505b6040516020016120c99291906133cb565b604051602081830303815290604052905095945050505050565b606060006120f08361238e565b60010190506000816001600160401b0381111561210f5761210f61294c565b6040519080825280601f01601f191660200182016040528015612139576020820181803683370190505b5090508181016020015b600019016f181899199a1a9b1b9c1cb0b131b232b360811b600a86061a8153600a850494508461214357509392505050565b610b6484848484612466565b6001600160a01b0384163b15610bce5760405163f23a6e6160e01b81526001600160a01b0385169063f23a6e61906121c590899089908890889088906004016135c6565b6020604051808303816000875af1925050508015612200575060408051601f3d908101601f191682019092526121fd9181019061360b565b60015b612269573d80801561222e576040519150601f19603f3d011682016040523d82523d6000602084013e612233565b606091505b50805160000361226157604051632bfa23e760e11b81526001600160a01b0386166004820152602401610bb8565b805181602001fd5b6001600160e01b0319811663f23a6e6160e01b14611ba357604051632bfa23e760e11b81526001600160a01b0386166004820152602401610bb8565b6001600160a01b0384163b15610bce5760405163bc197c8160e01b81526001600160a01b0385169063bc197c81906122e99089908990889088908890600401613628565b6020604051808303816000875af1925050508015612324575060408051601f3d908101601f191682019092526123219181019061360b565b60015b612352573d80801561222e576040519150601f19603f3d011682016040523d82523d6000602084013e612233565b6001600160e01b0319811663bc197c8160e01b14611ba357604051632bfa23e760e11b81526001600160a01b0386166004820152602401610bb8565b60008072184f03e93ff9f4daa797ed6e38ed64bf6a1f0160401b83106123cd5772184f03e93ff9f4daa797ed6e38ed64bf6a1f0160401b830492506040015b6d04ee2d6d415b85acef810000000083106123f9576d04ee2d6d415b85acef8100000000830492506020015b662386f26fc10000831061241757662386f26fc10000830492506010015b6305f5e100831061242f576305f5e100830492506008015b612710831061244357612710830492506004015b60648310612455576064830492506002015b600a83106105d15760010192915050565b612472848484846125c0565b6001600160a01b038416612525576000805b835181101561250b5760008382815181106124a1576124a1613156565b6020026020010151905080600460008785815181106124c2576124c2613156565b6020026020010151815260200190815260200160002060008282546124e7919061342e565b909155506124f79050818461342e565b9250508061250490613276565b9050612484565b50806005600082825461251e919061342e565b9091555050505b6001600160a01b038316610b64576000805b83518110156125af57600083828151811061255457612554613156565b60200260200101519050806004600087858151811061257557612575613156565b6020026020010151815260200190815260200160002060008282540392505081905550808301925050806125a890613276565b9050612537565b506005805491909103905550505050565b80518251146125ef5781518151604051635b05999160e01b815260048101929092526024820152604401610bb8565b3360005b83518110156126fe576020818102858101820151908501909101516001600160a01b038816156126a6576000828152602081815260408083206001600160a01b038c1684529091529020548181101561267f576040516303dee4c560e01b81526001600160a01b038a166004820152602481018290526044810183905260648101849052608401610bb8565b6000838152602081815260408083206001600160a01b038d16845290915290209082900390555b6001600160a01b038716156126eb576000828152602081815260408083206001600160a01b038b168452909152812080548392906126e590849061342e565b90915550505b5050806126f790613276565b90506125f3565b50825160010361277f5760208301516000906020840151909150856001600160a01b0316876001600160a01b0316846001600160a01b03167fc3d58168c5ae7397731d063d5bbf3d657854427343f4c083240f7aacaa2d0f628585604051612770929190918252602082015260400190565b60405180910390a450506119d2565b836001600160a01b0316856001600160a01b0316826001600160a01b03167f4a39dc06d4c0dbc64b70af90fd698a233a518aa5d07e595d983b8c0526c8f7fb86866040516127ce929190613686565b60405180910390a45050505050565b80356001600160a01b03811681146127f457600080fd5b919050565b6000806040838503121561280c57600080fd5b612815836127dd565b946020939093013593505050565b6001600160e01b0319811681146118a657600080fd5b60006020828403121561284b57600080fd5b8135610a5581612823565b60005b83811015612871578181015183820152602001612859565b50506000910152565b60008151808452612892816020860160208601612856565b601f01601f19169290920160200192915050565b602081526000610a55602083018461287a565b6000602082840312156128cb57600080fd5b5035919050565b600080604083850312156128e557600080fd5b823591506128f5602084016127dd565b90509250929050565b600081518084526020808501945080840160005b8381101561292e57815187529582019590820190600101612912565b509495945050505050565b602081526000610a5560208301846128fe565b634e487b7160e01b600052604160045260246000fd5b60405160e081016001600160401b03811182821017156129845761298461294c565b60405290565b604051601f8201601f191681016001600160401b03811182821017156129b2576129b261294c565b604052919050565b60006001600160401b038211156129d3576129d361294c565b5060051b60200190565b600082601f8301126129ee57600080fd5b81356020612a036129fe836129ba565b61298a565b82815260059290921b84018101918181019086841115612a2257600080fd5b8286015b84811015612a3d5780358352918301918301612a26565b509695505050505050565b600082601f830112612a5957600080fd5b81356001600160401b03811115612a7257612a7261294c565b612a85601f8201601f191660200161298a565b818152846020838601011115612a9a57600080fd5b816020850160208301376000918101602001919091529392505050565b60008060008060808587031215612acd57600080fd5b612ad6856127dd565b935060208501356001600160401b0380821115612af257600080fd5b612afe888389016129dd565b94506040870135915080821115612b1457600080fd5b612b20888389016129dd565b93506060870135915080821115612b3657600080fd5b50612b4387828801612a48565b91505092959194509250565b600080600080600060a08688031215612b6757600080fd5b612b70866127dd565b9450612b7e602087016127dd565b935060408601356001600160401b0380821115612b9a57600080fd5b612ba689838a016129dd565b94506060880135915080821115612bbc57600080fd5b612bc889838a016129dd565b93506080880135915080821115612bde57600080fd5b50612beb88828901612a48565b9150509295509295909350565b60008060008060808587031215612c0e57600080fd5b8435935060208501356001600160401b0380821115612c2c57600080fd5b9086019060e08289031215612c4057600080fd5b612c48612962565b82358152602083013582811115612c5e57600080fd5b612c6a8a828601612a48565b602083015250604083013582811115612c8257600080fd5b612c8e8a828601612a48565b604083015250606083013582811115612ca657600080fd5b612cb28a828601612a48565b606083015250608083013582811115612cca57600080fd5b612cd68a828601612a48565b60808301525060a083013582811115612cee57600080fd5b612cfa8a828601612a48565b60a08301525060c083013582811115612d1257600080fd5b612d1e8a828601612a48565b60c0830152509450612b20604088016127dd565b87815260e060208201526000612d4b60e083018961287a565b8281036040840152612d5d818961287a565b90508281036060840152612d71818861287a565b90508281036080840152612d85818761287a565b905082810360a0840152612d99818661287a565b905082810360c0840152612dad818561287a565b9a9950505050505050505050565b60008060408385031215612dce57600080fd5b82356001600160401b0380821115612de557600080fd5b818501915085601f830112612df957600080fd5b81356020612e096129fe836129ba565b82815260059290921b84018101918181019089841115612e2857600080fd5b948201945b83861015612e4d57612e3e866127dd565b82529482019490820190612e2d565b96505086013592505080821115612e6357600080fd5b50612e70858286016129dd565b9150509250929050565b600060208284031215612e8c57600080fd5b610a55826127dd565b60006020808301818452808551808352604092508286019150828160051b8701018488016000805b84811015612f2657898403603f19018652825180518552880151888501889052805188860181905290890190839060608701905b80831015612f115783518252928b019260019290920191908b0190612ef1565b50978a01979550505091870191600101612ebd565b50919998505050505050505050565b803580151581146127f457600080fd5b60008060408385031215612f5857600080fd5b612f6183612f35565b91506128f5602084016127dd565b60208152815160208201526000602083015160e06040840152612f9661010084018261287a565b90506040840151601f1980858403016060860152612fb4838361287a565b92506060860151915080858403016080860152612fd1838361287a565b925060808601519150808584030160a0860152612fee838361287a565b925060a08601519150808584030160c086015261300b838361287a565b925060c08601519150808584030160e086015250613029828261287a565b95945050505050565b6000806040838503121561304557600080fd5b61304e836127dd565b91506128f560208401612f35565b6000806040838503121561306f57600080fd5b612f61836127dd565b600080600080600060a0868803121561309057600080fd5b613099866127dd565b94506130a7602087016127dd565b9350604086013592506060860135915060808601356001600160401b038111156130d057600080fd5b612beb88828901612a48565b600181811c908216806130f057607f821691505b60208210810361311057634e487b7160e01b600052602260045260246000fd5b50919050565b634e487b7160e01b600052601160045260246000fd5b80820281158282048414176105d1576105d1613116565b818103818111156105d1576105d1613116565b634e487b7160e01b600052603260045260246000fd5b601f8211156131b257600081815260208120601f850160051c810160208610156131935750805b601f850160051c820191505b81811015610bce5782815560010161319f565b505050565b81516001600160401b038111156131d0576131d061294c565b6131e4816131de84546130dc565b8461316c565b602080601f83116001811461321957600084156132015750858301515b600019600386901b1c1916600185901b178555610bce565b600085815260208120601f198616915b8281101561324857888601518255948401946001909101908401613229565b50858210156132665787850151600019600388901b60f8161c191681555b5050505050600190811b01905550565b60006001820161328857613288613116565b5060010190565b683d913730b6b2911d1160b91b815283516000906132b4816009850160208901612856565b7f222c20226465736372697074696f6e223a225468652070726f6f66206f6620656009918401918201527f717569747920666f7220776562322067616d6573206f6e207468652047616d6560298201527f5850616420706c6174666f726d2e222c202261747472696275746573223a00006049820152845161333d816067840160208901612856565b6b16101134b6b0b3b2911d101160a11b60679290910191820152835161336a816073840160208801612856565b61227d60f01b6073929091019182015260750195945050505050565b7f646174613a6170706c69636174696f6e2f6a736f6e3b6261736536342c0000008152600082516133be81601d850160208701612856565b91909101601d0192915050565b600083516133dd818460208801612856565b8351908301906133f1818360208801612856565b01949350505050565b605b60f81b815260008251613416816001850160208701612856565b605d60f81b6001939091019283015250600201919050565b808201808211156105d1576105d1613116565b60008261345e57634e487b7160e01b600052601260045260246000fd5b500490565b6e3d913a3930b4ba2fba3cb832911d1160891b8152815160009061348e81600f850160208701612856565b61088b60f21b600f939091019283015250601101919050565b600082516134b9818460208701612856565b9190910192915050565b600083516134d5818460208801612856565b6f113234b9b83630bcafba3cb832911d1160811b9083019081528351613502816010840160208801612856565b61088b60f21b60109290910191820152601201949350505050565b6000835161352f818460208801612856565b68113b30b63ab2911d1160b91b9083019081528351613555816009840160208801612856565b601160f91b60099290910191820152600a01949350505050565b60008351613581818460208801612856565b6d161136b0bc2fbb30b63ab2911d1160911b90830190815283516135ac81600e840160208801612856565b601160f91b600e9290910191820152600f01949350505050565b6001600160a01b03868116825285166020820152604081018490526060810183905260a0608082018190526000906136009083018461287a565b979650505050505050565b60006020828403121561361d57600080fd5b8151610a5581612823565b6001600160a01b0386811682528516602082015260a060408201819052600090613654908301866128fe565b828103606084015261366681866128fe565b9050828103608084015261367a818561287a565b98975050505050505050565b60408152600061369960408301856128fe565b828103602084015261302981856128fe56fe4142434445464748494a4b4c4d4e4f505152535455565758595a6162636465666768696a6b6c6d6e6f707172737475767778797a303132333435363738392b2fa164736f6c6343000814000a",
  "linkReferences": {},
  "deployedLinkReferences": {}
}