{
  "_format": "hh-sol-artifact-1",
  "contractName": "XPassDistribute",
  "sourceName": "contracts/facets/XPassDistribute.sol",
  "abi": [
    {
      "inputs": [
        {
          "internalType": "address",
          "name": "_xPassCard",
          "type": "address"
        }
      ],
      "stateMutability": "nonpayable",
      "type": "constructor"
    },
    {
      "inputs": [],
      "name": "Already_Claimed",
      "type": "error"
    },
    {
      "inputs": [],
      "name": "Could_Not_Be_Queued",
      "type": "error"
    },
    {
      "inputs": [],
      "name": "Event_Ended",
      "type": "error"
    },
    {
      "inputs": [],
      "name": "Event_Not_Started",
      "type": "error"
    },
    {
      "inputs": [],
      "name": "Merkle_Required",
      "type": "error"
    },
    {
      "inputs": [],
      "name": "Not_Merkle_Required",
      "type": "error"
    },
    {
      "inputs": [
        {
          "internalType": "address",
          "name": "owner",
          "type": "address"
        }
      ],
      "name": "OwnableInvalidOwner",
      "type": "error"
    },
    {
      "inputs": [
        {
          "internalType": "address",
          "name": "account",
          "type": "address"
        }
      ],
      "name": "OwnableUnauthorizedAccount",
      "type": "error"
    },
    {
      "inputs": [],
      "name": "ReentrancyGuardReentrantCall",
      "type": "error"
    },
    {
      "anonymous": false,
      "inputs": [
        {
          "indexed": true,
          "internalType": "address",
          "name": "to",
          "type": "address"
        },
        {
          "indexed": false,
          "internalType": "uint256",
          "name": "time",
          "type": "uint256"
        }
      ],
      "name": "HandleMint",
      "type": "event"
    },
    {
      "anonymous": false,
      "inputs": [
        {
          "indexed": true,
          "internalType": "address",
          "name": "previousOwner",
          "type": "address"
        },
        {
          "indexed": true,
          "internalType": "address",
          "name": "newOwner",
          "type": "address"
        }
      ],
      "name": "OwnershipTransferred",
      "type": "event"
    },
    {
      "anonymous": false,
      "inputs": [
        {
          "indexed": true,
          "internalType": "address",
          "name": "from",
          "type": "address"
        },
        {
          "indexed": true,
          "internalType": "address",
          "name": "to",
          "type": "address"
        },
        {
          "indexed": false,
          "internalType": "uint256",
          "name": "value",
          "type": "uint256"
        }
      ],
      "name": "Transfer",
      "type": "event"
    },
    {
      "anonymous": false,
      "inputs": [
        {
          "indexed": true,
          "internalType": "address",
          "name": "from",
          "type": "address"
        },
        {
          "indexed": true,
          "internalType": "address",
          "name": "to",
          "type": "address"
        },
        {
          "indexed": false,
          "internalType": "uint256",
          "name": "value",
          "type": "uint256"
        }
      ],
      "name": "Withdrawal",
      "type": "event"
    },
    {
      "inputs": [
        {
          "internalType": "address",
          "name": "",
          "type": "address"
        }
      ],
      "name": "claimed",
      "outputs": [
        {
          "internalType": "bool",
          "name": "",
          "type": "bool"
        }
      ],
      "stateMutability": "view",
      "type": "function"
    },
    {
      "inputs": [],
      "name": "getEventId",
      "outputs": [
        {
          "internalType": "uint256",
          "name": "id",
          "type": "uint256"
        }
      ],
      "stateMutability": "view",
      "type": "function"
    },
    {
      "inputs": [],
      "name": "getEventInfo",
      "outputs": [
        {
          "components": [
            {
              "internalType": "bool",
              "name": "isExist",
              "type": "bool"
            },
            {
              "internalType": "bool",
              "name": "isMerkle",
              "type": "bool"
            },
            {
              "internalType": "bytes32",
              "name": "merkleRoot",
              "type": "bytes32"
            },
            {
              "internalType": "uint256",
              "name": "userCount",
              "type": "uint256"
            },
            {
              "internalType": "uint256",
              "name": "tokensToBeDist",
              "type": "uint256"
            },
            {
              "internalType": "uint256",
              "name": "tokensDist",
              "type": "uint256"
            },
            {
              "internalType": "uint256",
              "name": "eventStartTime",
              "type": "uint256"
            },
            {
              "internalType": "uint256",
              "name": "eventEndTime",
              "type": "uint256"
            }
          ],
          "internalType": "struct XPassDistribute.PassData",
          "name": "",
          "type": "tuple"
        }
      ],
      "stateMutability": "view",
      "type": "function"
    },
    {
      "inputs": [
        {
          "internalType": "address",
          "name": "_user",
          "type": "address"
        }
      ],
      "name": "getUserCurrentEventInfo",
      "outputs": [
        {
          "internalType": "bool",
          "name": "isClaimed",
          "type": "bool"
        }
      ],
      "stateMutability": "view",
      "type": "function"
    },
    {
      "inputs": [
        {
          "components": [
            {
              "internalType": "bool",
              "name": "isExist",
              "type": "bool"
            },
            {
              "internalType": "bool",
              "name": "isMerkle",
              "type": "bool"
            },
            {
              "internalType": "bytes32",
              "name": "merkleRoot",
              "type": "bytes32"
            },
            {
              "internalType": "uint256",
              "name": "userCount",
              "type": "uint256"
            },
            {
              "internalType": "uint256",
              "name": "tokensToBeDist",
              "type": "uint256"
            },
            {
              "internalType": "uint256",
              "name": "tokensDist",
              "type": "uint256"
            },
            {
              "internalType": "uint256",
              "name": "eventStartTime",
              "type": "uint256"
            },
            {
              "internalType": "uint256",
              "name": "eventEndTime",
              "type": "uint256"
            }
          ],
          "internalType": "struct XPassDistribute.PassData",
          "name": "_params",
          "type": "tuple"
        }
      ],
      "name": "initPassData",
      "outputs": [],
      "stateMutability": "nonpayable",
      "type": "function"
    },
    {
      "inputs": [
        {
          "internalType": "uint256",
          "name": "_nodeIndex",
          "type": "uint256"
        },
        {
          "internalType": "uint256",
          "name": "_tokenId",
          "type": "uint256"
        },
        {
          "internalType": "bytes32[]",
          "name": "_merkleProof",
          "type": "bytes32[]"
        }
      ],
      "name": "merkleClaim",
      "outputs": [],
      "stateMutability": "nonpayable",
      "type": "function"
    },
    {
      "inputs": [],
      "name": "owner",
      "outputs": [
        {
          "internalType": "address",
          "name": "",
          "type": "address"
        }
      ],
      "stateMutability": "view",
      "type": "function"
    },
    {
      "inputs": [
        {
          "internalType": "uint256",
          "name": "",
          "type": "uint256"
        }
      ],
      "name": "pass",
      "outputs": [
        {
          "internalType": "bool",
          "name": "isExist",
          "type": "bool"
        },
        {
          "internalType": "bool",
          "name": "isMerkle",
          "type": "bool"
        },
        {
          "internalType": "bytes32",
          "name": "merkleRoot",
          "type": "bytes32"
        },
        {
          "internalType": "uint256",
          "name": "userCount",
          "type": "uint256"
        },
        {
          "internalType": "uint256",
          "name": "tokensToBeDist",
          "type": "uint256"
        },
        {
          "internalType": "uint256",
          "name": "tokensDist",
          "type": "uint256"
        },
        {
          "internalType": "uint256",
          "name": "eventStartTime",
          "type": "uint256"
        },
        {
          "internalType": "uint256",
          "name": "eventEndTime",
          "type": "uint256"
        }
      ],
      "stateMutability": "view",
      "type": "function"
    },
    {
      "inputs": [],
      "name": "renounceOwnership",
      "outputs": [],
      "stateMutability": "nonpayable",
      "type": "function"
    },
    {
      "inputs": [
        {
          "internalType": "bool",
          "name": "_status",
          "type": "bool"
        }
      ],
      "name": "setEventExist",
      "outputs": [],
      "stateMutability": "nonpayable",
      "type": "function"
    },
    {
      "inputs": [
        {
          "internalType": "address",
          "name": "_newAddress",
          "type": "address"
        }
      ],
      "name": "setPassCard",
      "outputs": [],
      "stateMutability": "nonpayable",
      "type": "function"
    },
    {
      "inputs": [],
      "name": "simpleClaim",
      "outputs": [],
      "stateMutability": "nonpayable",
      "type": "function"
    },
    {
      "inputs": [
        {
          "internalType": "address",
          "name": "newOwner",
          "type": "address"
        }
      ],
      "name": "transferOwnership",
      "outputs": [],
      "stateMutability": "nonpayable",
      "type": "function"
    }
  ],
  "bytecode": "0x6080604052600580546001600160a01b031916905534801561002057600080fd5b50604051610e47380380610e4783398101604081905261003f916100e8565b338061006557604051631e4fbdf760e01b81526000600482015260240160405180910390fd5b61006e81610098565b5060018055600580546001600160a01b0319166001600160a01b0392909216919091179055610118565b600080546001600160a01b038381166001600160a01b0319831681178455604051919092169283917f8be0079c531659141344cd1fd0a4f28419497f9722a3daafe3b4186f6b6457e09190a35050565b6000602082840312156100fa57600080fd5b81516001600160a01b038116811461011157600080fd5b9392505050565b610d20806101276000396000f3fe608060405234801561001057600080fd5b50600436106100cf5760003560e01c8063b05273c41161008c578063d67c996111610066578063d67c9961146101f0578063e31863b114610281578063f2fde38b146102ad578063f6b457de146102c057600080fd5b8063b05273c414610197578063c884ef83146101aa578063d109effd146101dd57600080fd5b80630e33c34b146100d45780630e33d902146100de5780634a17bbde146100f15780636d00fa6814610107578063715018a6146101745780638da5cb5b1461017c575b600080fd5b6100dc6102d3565b005b6100dc6100ec366004610b55565b6104ef565b6002546040519081526020015b60405180910390f35b61010f6107c0565b6040516100fe919060006101008201905082511515825260208301511515602083015260408301516040830152606083015160608301526080830151608083015260a083015160a083015260c083015160c083015260e083015160e083015292915050565b6100dc610885565b6000546040516001600160a01b0390911681526020016100fe565b6100dc6101a5366004610bed565b610897565b6101cd6101b8366004610c0f565b60046020526000908152604090205460ff1681565b60405190151581526020016100fe565b6100dc6101eb366004610c38565b6108c1565b6102446101fe366004610ce4565b6003602081905260009182526040909120805460018201546002830154938301546004840154600585015460069095015460ff8086169761010090960416959394939088565b6040805198151589529615156020890152958701949094526060860192909252608085015260a084015260c083015260e0820152610100016100fe565b6101cd61028f366004610c0f565b6001600160a01b031660009081526004602052604090205460ff1690565b6100dc6102bb366004610c0f565b6109a0565b6100dc6102ce366004610c0f565b6109de565b6102db610a08565b600254600090815260036020526040902060050154339042101561031257604051639e04288760e01b815260040160405180910390fd5b6002546000908152600360205260409020600601544211156103475760405163fdd620a560e01b815260040160405180910390fd5b600254600090815260036020819052604090912090810154600490910154036103835760405163fdd620a560e01b815260040160405180910390fd5b600254600090815260036020526040902054610100900460ff16156103bb5760405163dca752eb60e01b815260040160405180910390fd5b6001600160a01b03811660009081526004602052604090205460ff16156103f55760405163fcfff1e360e01b815260040160405180910390fd5b6001600160a01b038181166000818152600460208181526040808420805460ff19166001908117909155600280548652600390935281852084018054820190558254855293819020909101805490930190925560055491516340d097c360e01b8152908101929092529091169081906340d097c390602401600060405180830381600087803b15801561048757600080fd5b505af115801561049b573d6000803e3d6000fd5b50505050816001600160a01b03167f19c6b36121d52389fa51be7ace70982e05e3fa77df34fbe4fe438e1972fc2bbc426040516104da91815260200190565b60405180910390a250506104ed60018055565b565b6104f7610a08565b6002546000908152600360205260409020543390610100900460ff16610530576040516396e884cd60e01b815260040160405180910390fd5b60025460009081526003602052604090206005015442101561056557604051639e04288760e01b815260040160405180910390fd5b60025460009081526003602052604090206006015442111561059a5760405163fdd620a560e01b815260040160405180910390fd5b600254600090815260036020819052604090912090810154600490910154036105d65760405163fdd620a560e01b815260040160405180910390fd5b60408051602081018790526bffffffffffffffffffffffff19606084901b16918101919091526054810185905260009060740160405160208183030381529060405280519060200120905061064584846003600060025481526020019081526020016000206001015484610a32565b6106875760405162461bcd60e51b815260206004820152600e60248201526d24b73b30b634b210383937b7b31760911b60448201526064015b60405180910390fd5b6001600160a01b03821660009081526004602052604090205460ff16156106c15760405163fcfff1e360e01b815260040160405180910390fd5b6001600160a01b038281166000818152600460208181526040808420805460ff19166001908117909155600280548652600390935281852084018054820190558254855293819020909101805490930190925560055491516340d097c360e01b8152908101929092529091169081906340d097c390602401600060405180830381600087803b15801561075357600080fd5b505af1158015610767573d6000803e3d6000fd5b50505050826001600160a01b03167f19c6b36121d52389fa51be7ace70982e05e3fa77df34fbe4fe438e1972fc2bbc426040516107a691815260200190565b60405180910390a25050506107ba60018055565b50505050565b61080f6040518061010001604052806000151581526020016000151581526020016000801916815260200160008152602001600081526020016000815260200160008152602001600081525090565b506002805460009081526003602081815260409283902083516101008082018652825460ff80821615158452919004161515928101929092526001810154938201939093529282015460608401528101546080830152600481015460a0830152600581015460c08301526006015460e082015290565b61088d610ad8565b6104ed6000610b05565b61089f610ad8565b6002546000908152600360205260409020805460ff1916911515919091179055565b6108c9610ad8565b60025460009081526003602052604090205460ff16156109185760025460009081526003602052604090206006015442101561091857604051630c2f0ee760e11b815260040160405180910390fd5b600280546001908101808355600090815260036020818152604092839020865181549288015161ffff1990931690151561ff0019161761010092151592909202919091178155918501519282019290925560608401519281019290925560808301519082015560a0820151600482015560c0820151600582015560e090910151600690910155565b6109a8610ad8565b6001600160a01b0381166109d257604051631e4fbdf760e01b81526000600482015260240161067e565b6109db81610b05565b50565b6109e6610ad8565b600580546001600160a01b0319166001600160a01b0392909216919091179055565b600260015403610a2b57604051633ee5aeb560e01b815260040160405180910390fd5b6002600155565b60008184825b81811015610acb576000888883818110610a5457610a54610cfd565b905060200201359050808411610a95576040805160208101869052908101829052606001604051602081830303815290604052805190602001209350610ac2565b60408051602081018390529081018590526060016040516020818303038152906040528051906020012093505b50600101610a38565b5050909214949350505050565b6000546001600160a01b031633146104ed5760405163118cdaa760e01b815233600482015260240161067e565b600080546001600160a01b038381166001600160a01b0319831681178455604051919092169283917f8be0079c531659141344cd1fd0a4f28419497f9722a3daafe3b4186f6b6457e09190a35050565b60008060008060608587031215610b6b57600080fd5b8435935060208501359250604085013567ffffffffffffffff80821115610b9157600080fd5b818701915087601f830112610ba557600080fd5b813581811115610bb457600080fd5b8860208260051b8501011115610bc957600080fd5b95989497505060200194505050565b80358015158114610be857600080fd5b919050565b600060208284031215610bff57600080fd5b610c0882610bd8565b9392505050565b600060208284031215610c2157600080fd5b81356001600160a01b0381168114610c0857600080fd5b6000610100808385031215610c4c57600080fd5b6040519081019067ffffffffffffffff82118183101715610c7d57634e487b7160e01b600052604160045260246000fd5b81604052610c8a84610bd8565b8152610c9860208501610bd8565b602082015260408401356040820152606084013560608201526080840135608082015260a084013560a082015260c084013560c082015260e084013560e0820152809250505092915050565b600060208284031215610cf657600080fd5b5035919050565b634e487b7160e01b600052603260045260246000fdfea164736f6c6343000814000a",
  "linkReferences": {},
  "deployedLinkReferences": {}
}